:020000040800F2
:1080000038370020498100081DA10008A984000814
:10801000818500086F820008C9A7000800000000E1
:108020000000000000000000000000002DA6000875
:10803000B182000800000000E5A300082FA6000898
:108040006381000863810008638100086381000880
:108050006381000863810008638100086381000870
:108060006381000863810008638100086381000860
:108070006381000863810008638100086381000850
:108080006381000863810008638100086381000840
:1080900075A70008638100086381000863810008F8
:1080A00063810008A1A600086381000863810008BD
:1080B0006381000863810008638100086381000810
:1080C0006381000863810008638100086381000800
:1080D00063810008638100086381000863810008F0
:1080E00063810008638100086381000863810008E0
:1080F00063810008638100086381000863810008D0
:1081000063810008638100086381000863810008BF
:1081100063810008638100086381000863810008AF
:10812000638100086381000863810008638100089F
:10813000DFF810D000F05EF80048004711C90008D1
:10814000AFF30080383700200648804706480047D4
:10815000FEE7FEE7FEE7FEE7FEE7FEE7FEE7FEE7F7
:10816000FEE7FEE731A60008318100080649074A0C
:108170000868504343F239021044086040087047D1
:108180000149086070470000EC0500206D4EC641B3
:1081900040EA01039B0703D009E008C9121F08C089
:1081A000042AFAD203E011F8013B00F8013B521E09
:1081B000F9D27047D2B201E000F8012B491EFBD280
:1081C00070470022F6E710B513460A4604461946E2
:1081D000FFF7F0FF204610BD30B5044600200346EF
:1081E00000E05B1C934203D2E05CCD5C401BF8D006
:1081F00030BD0000064C074D06E0E06840F001038A
:1082000094E8070098471034AC42F6D3FFF794FF88
:108210001C3B01083C3B010870B58C1810F8015B51
:1082200015F0070301D110F8013B2A1106D110F80F
:10823000012B03E010F8016B01F8016B5B1EF9D113
:108240002B0705D40023521E0DD401F8013BFAE799
:1082500010F8013BCB1A921C03E013F8015B01F804
:10826000015B521EF9D5A142D8D3002070BD00BFDA
:10827000FEE70000F0EE400AB0EE001A20EE811A90
:108280000948D0ED061A61EE211A808B01EE100A22
:10829000B8EE411A21EE811ADFED041A81EE212A8F
:1082A000B0EE420A7047000038160020007C924869
:1082B000704710B50B46002105E0048823F81140F3
:1082C000801C4C1CA1B29142F7DB10BD2DE9F84F88
:1082D00081460C4692469846B9F1000F26D0B9F176
:1082E000010F07D1B4F1006F02D3494884421DD376
:1082F000BDE8F88FB9F1020F05D1022C02D3454831
:10830000844213D3F4E7B9F1030F05D1032C02D350
:10831000414884420AD3EBE7B9F1040F05D1042C9C
:1083200002D33E48844201D3E2E7E1E703F08EFF47
:1083300040F2053003F0C6FF4FF4417003F0C2FF76
:1083400040F2023003F0BEFFA4F1006000900098FC
:10835000C60A0098C0F3490BCBF58065A84500DC40
:1083600045464FE04FF0006101EBC6204A142C490E
:10837000FFF79FFF00270BE00BEB0700284931F8C0
:1083800010004FF6FF71884200D003E0781C87B2DE
:10839000AF42F1DB00BFAF421BDA4FF0006101EBEF
:1083A000C62003F0FFFF002708E03AF8170007EBAC
:1083B0000B011B4A22F81100781C87B2AF42F4DB94
:1083C0004FF0006101EBC6204A14154900F02AF86D
:1083D00004E02A465146204600F024F8A84500D182
:1083E00011E0761C4FF0000B0AEB450A2C44A8EB79
:1083F00005001FFA80F8B8F5806F02DD4FF4806544
:1084000000E04546AEE700BF03F0ECFE00BF6FE7BB
:10841000008000080080010800880308009003081D
:10842000362B00202DE9F04105460E461746002464
:1084300007E036F81410284603F054FFAD1C601C0A
:1084400084B2BC42F5DBBDE8F08100001348406D0A
:108450001349C1F8B0001348C088012800DC7047F8
:108460000F48D0F8B4000E49D1F8B010884205DAB0
:108470000B48D0F8B0000A49C1F8B4000848D0F859
:10848000B8000749D1F8B010884205DD0448D0F89B
:10849000B0000349C1F8B80000BFE0E714140020A1
:1084A000A81700203816002000BFFEE7DFED080AFD
:1084B00060EE200A074890ED081ADFED071A21EE5A
:1084C000211AC0EE811AFDEEE10A10EE900A704703
:1084D0000000804738160020DB0F494001460C4859
:1084E000806A081A00EE100AF8EEC00A084890EDFB
:1084F000140AB8EE400A60EE800A90ED130AB8EE56
:10850000400A80EE801ABDEEC10A10EE100A7047D4
:10851000381600200146DFED150AB0EE600A002093
:1085200000EE901AF8EE600A9FED111A60EE810AD3
:10853000B1EE041A60EE810A9FED0E1A60EE810A18
:10854000B0EE600ADFED0C0A60EE200A9FED0B1A18
:10855000C0EE811AFCEEE10A10EE902A90B2B0F55E
:108560007A6F01DD4FF47A60704700000000000070
:108570006F12833ACDCCCC3D00008045333353405D
:1085800000BFFEE7034693FBF1F001FB103002B29F
:10859000002A02DA501800B270471046FCE70000CB
:1085A00000218269002A01DA00228261016B42887F
:1085B00032B1012A34D0022A3ED0032A79D16BE0AD
:1085C0000022828082691144026A521E8A4205DCBE
:1085D000026A511E01224280428120E0384A92ED17
:1085E000040ADFED380AB4EEE00AF1EE10FA14DD09
:1085F000354A12688AB9828A521C8282828AB2F50E
:108600007A7F0CDB002282822D4A5168012242804F
:1086100042812B4A5268C26201E0002282824BE012
:10862000002242818269891A426A8A4203DD02225B
:1086300042800122C2803FE00022C2808269891A02
:10864000C2698A4205DBC16903224280012202819C
:1086500021E01B4A92ED040ADFED1C0AB4EEE00AA9
:10866000F1EE10FA15D2184A126892B9828A521C99
:108670008282828AB2F57A7F0DDB00228282104AE2
:10868000516803224280012202810D4A52688262AF
:1086900001E0002282820FE00022028182691144FF
:1086A000426A8A4203DA002242800122828003E089
:1086B000FFE70022428000BF00BF01637047000057
:1086C0009C1500207B142E3E000000207B142EBE43
:1086D0000169002901DA00210161818941B100218C
:1086E0008181C0F89010C0F894108180C1807047DB
:1086F000418831B101291CD002292BD0032953D143
:1087000041E0002181800269D0F890101144C0F846
:1087100090108269D0F89010914209DDD0F8902035
:108720008169C2EB4101C0F8901001214180418173
:108730003DE0002141810269D0F89010891AC0F80B
:108740009010D0F89010002903DA02214180012115
:10875000C1802CE00021C1800269D0F89010891AF4
:10876000C0F890104269D0F8901091420ADAD0F81F
:1087700090204169C2EB4101C0F890100321418073
:108780000121018113E0002101810269D0F89010DC
:108790001144C0F89010D0F89010002903DD00219A
:1087A00041800121818002E00021418000BF00BFA3
:1087B000D0F89010002918DB90ED110AF8EE400A6D
:1087C00090ED240AB8EEC00A60EE800A90ED1B0A14
:1087D000B8EE400AB6EE001A20EE010A80EE801ACA
:1087E000BDEEC10A80ED250A17E090ED120AF8EE01
:1087F000400A90ED240AB8EEC00A60EE800A90EDBF
:108800001B0AB8EE400AB6EE001A20EE010A80EE0E
:10881000801ABDEEC10A80ED250A50F8941F416010
:10882000054A4168926A1144034A526B891A4161B0
:10883000943800BF5BE700003816002010B5002117
:10884000FB4A928802B910BDFA4AD288032A7CD129
:10885000F94AB2F85020002A77D0F74AB2F85020EF
:10886000012A73D1F44AB2F85620BAB1F24AB2F8EA
:10887000522001EE102AB8EE411ADFEDF01A61EE37
:10888000211AED4AB2F8562001EE102AB8EE411A2C
:1088900081EE812AE84A82ED4D2A04E09FEDE81A34
:1088A000E54A82ED4D1AE44AB2F85A20E24BB3F899
:1088B000563092FBF3F2E04BA3F85E201A46B2F872
:1088C0005620B3F85A301A44DB4BA3F860201A46FE
:1088D000B2F85E20002A5CD11A46B2F86630B2F8CF
:1088E0005A20B3EB420F3ADAD34AB2F86A20012A8F
:1088F00009DA9FEDD31AD04A82ED4F1A9FEDD01AB4
:1089000082ED501A18E0CC4AB2F86820521CCA4BCB
:10891000A3F868201A46D2ED4D1AB2F8682001EE8D
:10892000102AB8EE411A21EE811A1A4682ED4F1A2A
:1089300092ED4F1A82ED501ABF4AB2F86A20521CCB
:10894000BD4BA3F86A201A4601E0FDE396E0B2F8B9
:108950006A20012A76DD0022A3F86A2072E0B64A76
:10896000B2F86820521CB44BA3F868201A46D2ED26
:108970004D1AB2F8682001EE102AB8EE411A21EE25
:10898000811A1A4682ED4F1A92ED4F1A82ED501A53
:1089900058E0A94AB2F85E20A74BA3F864201A4613
:1089A000B2F85620B3F864305B1C5A43A24BB3F8BC
:1089B00066309A423DDDA04AB2F86A209E4BB3F879
:1089C00064309A4209DA9FED9E1A9B4A82ED4F1A53
:1089D0009FED9B1A82ED501A18E0974AB2F8682072
:1089E000521C954BA3F868201A46D2ED4D1AB2F8E6
:1089F000682001EE102AB8EE411A21EE811A1A46BB
:108A000082ED4F1A92ED4F1A82ED501A8A4AB2F84F
:108A10006A20521C884BA3F86A201A46B2F86A20D2
:108A2000B3F864309A420DDD0022834BA3F86A202C
:108A300008E09FED831A804A82ED4F1A9FED801A5D
:108A400082ED501A7C4AB2F86620521C7A4BA3F889
:108A500066201A46B2F86620B3F860309A420CDB02
:108A60000022754BA3F86620A3F86820A3F86A20BB
:108A70009FED731A1A4682ED4D1A8CE06E4AB2F8D9
:108A80005020022A7DD16C4AB2F85620BAB16A4A07
:108A9000B2F8522001EE102AB8EE411ADFED671A43
:108AA00061EE211A644AB2F8562001EE102AB8EE9F
:108AB000411A81EE812A604A82ED4D2A04E09FED41
:108AC000601A5D4A82ED4D1A5B4AB2F85A205A4B41
:108AD000B3F8563092FBF3F2574BA3F85E201A46D8
:108AE000B2F85620B3F85A301A44534BA3F860201A
:108AF0001A46B2F86620B3F85A309A4209DA9FED66
:108B0000501A4D4A82ED4F1A9FED4D1A82ED501AC0
:108B100024E0494AB2F85A20474BB3F856301A4479
:108B2000454BB3F866309A4218DD434AB2F86820E4
:108B3000521C414BA3F868201A46D2ED4D1AB2F8E8
:108B4000682001EE102AB8EE411A21EE811A1A4669
:108B500082ED4F1A92ED4F1A82ED501A364AB2F852
:108B60006620521C344BA3F866201A46B2F86620E1
:108B7000B3F860309A420EDB00222F4BA3F8662038
:108B800000E009E0A3F86820A3F86A209FED2C1A02
:108B90001A4682ED4D1AA3E0274AB2F85020032A64
:108BA0007ED1254AB2F85620BAB1234AB2F85220F3
:108BB00001EE102AB8EE411ADFED201A61EE211AFB
:108BC0001D4AB2F8562001EE102AB8EE411A81EE85
:108BD000812A194A82ED4D2A04E09FED191A164A9E
:108BE00082ED4D1A144AB2F85A20134BB3F856309E
:108BF00092FBF3F2104BA3F85E201A46B2F856200F
:108C0000B3F85A301A440C4BA3F860201A46B2F855
:108C10006620B3F85A309A4214DA9FED091A064AD0
:108C200082ED4F1A9FED061A82ED501A3DE00000CA
:108C3000A81700203816002068180020CDCCCC3DA5
:108C400000000000F94AB2F85A20F84BB3F8563049
:108C50001A44F64BB3F866309A4226DDF34AD2ED59
:108C60004D1AB2F8682001EE102AB8EE411A21EE32
:108C7000811AEE4A82ED4F1AB2F85620EB4BB3F848
:108C80006830D21A01EE102AB8EEC11AE74AD2EDC6
:108C90004D1A21EE211A82ED501AB2F8682000E038
:108CA0001FE0521CE14BA3F86820E04AB2F86620AE
:108CB000521CDE4BA3F866201A46B2F86620B3F8C1
:108CC00060309A420CDD0022D84BA3F86620A3F84E
:108CD0006820A3F86A201FED261A1A4682ED4D1A65
:108CE000B2E0D24AB2F85020042A7DD1CF4AB2F87D
:108CF0005620BAB1CD4AB2F8522001EE102AB8EE91
:108D0000411A5FED321A61EE211AC84AB2F85620B4
:108D100001EE102AB8EE411A81EE812AC34A82ED93
:108D20004D2A04E01FED3A1AC04A82ED4D1ABF4A9F
:108D3000B2F85C20002A7DD1BC4AB2F85A20BB4B65
:108D4000B3F856301A44B94BA3F860201A46B2F86B
:108D50006620B3F85A309A420EDA1FED471AB34A2A
:108D600082ED4F1A1FED4A1A82ED501AB2F85620C2
:108D7000AE4BA3F8682027E0AC4AB2F85A20AB4BC0
:108D8000B3F856301A44A94BB3F866309A421BDD4B
:108D9000A64AD2ED4D1AB2F8682001EE102AB8EEBC
:108DA000411A21EE811AA14A82ED4F1A92ED4F1A13
:108DB00082ED501AB2F8682032B19C4AB2F86820AD
:108DC000521E9A4BA3F86820984AB2F86620521CAB
:108DD000964BA3F866201A46B2F86620B3F86030C6
:108DE0009A4231DB002200E0E3E1904BA3F86620D9
:108DF000A3F86820A3F86A201FED6F1A1A4682EDC7
:108E00004D1A8B4AB2F81821322392FBF3F403FB7C
:108E10001422521C90B201EE100AB8EE411ADFED96
:108E2000851A21EE210A844A928F01EE102AB8EEAB
:108E3000411A00E009E021EE001ABCEEC11A11EE61
:108E4000102A7A4BA3F852204DE3784AB2F86220F8
:108E5000764BB3F85C309A427DDA744AB2F85A2005
:108E6000724BB3F856301A44704BA3F860201A4680
:108E7000B2F86620B3F85A309A420EDA1FED901A13
:108E80006A4A82ED4F1A1FED921A82ED501AB2F81B
:108E90005620664BA3F8682027E0644AB2F85A20AF
:108EA000624BB3F856301A44604BB3F866309A42BE
:108EB0001BDD5E4AD2ED4D1AB2F8682001EE102A91
:108EC000B8EE411A21EE811A584A82ED4F1A92EDFE
:108ED0004F1A82ED501AB2F8682032B1534AB2F8F4
:108EE0006820521E514BA3F86820504AB2F8662001
:108EF000521C4E4BA3F866201A46B2F86620B3F80F
:108F000060309A42A0DB0022484BA3F86620A3F809
:108F10006820A3F86A201FEDB61A1A4682ED4D1A92
:108F2000434AB2F81821322392FBF3F403FB1422D4
:108F3000521C90B201EE100AB8EE411ADFED3D1A54
:108F400021EE210A3C4A928F01EE102AB8EE411A16
:108F500021EE001A00E03BE0BCEEC11A11EE102A2F
:108F6000324BA3F852201A46B2F86220521CA3F8E2
:108F700062201A46B2F86220B3F85C309A42C1DB34
:108F80002B4AB2F81821322392FBF3F403FB14228C
:108F9000521C90B201EE100AB8EE411ADFED251A0C
:108FA00021EE211AB0EE410A234A928F224BB3F8E8
:108FB00042301A4401EE102AB8EEC11A21EE001A0E
:108FC000BCEEC11A11EE102A184BA3F854208AE205
:108FD000164AB2F85A20154BB3F856301A44134BC0
:108FE000B3F858301A44114BA3F860201A46B2F86F
:108FF0005820D2B11A46B2F85620B3F858301A4465
:1090000001EE102AF8EEC11A084AB2F8542001EE17
:10901000102AB8EE411A1FEDF72A21EE021A81EE4E
:10902000212A024A82ED4E2A0DE007E0681800204E
:10903000381600200AD7A33CFC0500209FEDF81A43
:10904000F84A82ED4E1AF74AB2F86620F54BB3F8AB
:109050005A309A4212DA9FEDF21AF24A82ED4F1A12
:109060009FEDEF1A82ED501AB2F85620ED4BB3F88F
:1090700058301A44EB4BA3F8682054E0E94AB2F8A0
:109080005A20E84BB3F858301A44E64BB3F8663030
:109090009A421CDDE34AD2ED4E1AB2F8682001EE86
:1090A000102AB8EE411A21EE811ADE4A82ED4F1ADB
:1090B00092ED4F1A82ED501AB2F868209AB3D94A4D
:1090C000B2F86820521ED74BA3F868202BE0D54A8F
:1090D000B2F85A20D34BB3F856301A44D14BB3F8F8
:1090E00058301A44CF4BB3F866309A421BDDCD4A54
:1090F000D2ED4E1AB2F8682001EE102AB8EE411AED
:1091000021EE811AC74A82ED4F1A92ED4F1A82ED75
:10911000501AB2F8682032B1C24AB2F86820521E22
:10912000C04BA3F86820BF4AB2F86620521CBD4B62
:10913000A3F866201A46B2F86620B3F860309A4267
:1091400036DB0022B74B00E096E1A3F86620A3F8D7
:109150006820A3F86A209FEDB21A1A4682ED4D1AD4
:109160009FEDAF1A82ED4E1AAF4AB2F818213223A2
:1091700092FBF3F403FB1422521C90B201EE100A8E
:10918000B8EE411A5FED551A21EE210AA74A928FD7
:1091900001EE102AB8EE411A21EE001ABCEEC11AF7
:1091A00011EE102A9F4BA3F852200022A3F8622050
:1091B00099E19C4AB2F85020052A7DD19B4A928FB2
:1091C00001EE102AB8EE411ADFED991A21EE211AAC
:1091D000DFED981A81EE212A924A82ED4D2AB2F8EB
:1091E0005A20904BB3F856301A448E4BA3F86020A7
:1091F0001A46B2F86620B3F85A309A4209DA9FED5F
:10920000881A884A82ED4F1A9FED851A82ED501A0E
:109210002DE0844AB2F85A20824BB3F856301A44F3
:10922000804BB3F866309A4221DD7F4AB2F81821AC
:10923000642392FBF3F403FB142290B2794A6C325C
:1092400032F81020521C93B2764A6C3222F8103059
:109250006C3AD2ED4D1A01EE100AB8EE411A21EE29
:10926000811A82ED4F1A92ED4F1A82ED501A6D4A13
:10927000B2F86620521C6B4BA3F866201A46B2F86F
:109280006620B3F860309A4292DB0022654BA3F867
:1092900066201A46B2F85A20521CA3F85A201A46E1
:1092A000B2F85A30614AB2F84020521D934207DDAD
:1092B0005E4AB2F8402000E003E05A4BA3F85A207F
:1092C00011E1584AB2F85020062A7CD1554AB2F82A
:1092D0006620521C534BA3F866201A46B2F866204B
:1092E000524BB3F840309A42EADB00224D4BA3F8D0
:1092F00066201A46B2F86A20242A4CDA4B4AD28FEA
:10930000012A1CDB494AD28F102A18DC474AD28F27
:10931000521E02EBC202484B03EBC202414BB3F8B0
:109320006A3032F8132001EE102AB8EE411ADFED50
:10933000401A21EE211A3B4A82ED4D1A10E0394ABB
:10934000B2F86A303D4A32F8132001EE102AB8EE26
:10935000411ADFED371A21EE211A324A82ED4D1AF9
:10936000304AD2ED4D1A314A928F01EE102AB8EEF2
:10937000411A21EE811ADFED321A21EE211A294A13
:1093800082ED4F1A82ED501AB2F86A20521C254B1A
:10939000A3F86A20A7E0234AB2F86A20242A29D138
:1093A0009FED1F1A1F4A82ED4F1A82ED501A1E4A76
:1093B000B2F818210A2392FBF3F292FBF3F403FBB9
:1093C00014221A4B00E049E0B3F846301A44154B1A
:1093D000A3F864201A46B2F864201AB90022A3F850
:1093E0006A2080E00F4AB2F86A20521C0D4BA3F8A5
:1093F0006A2078E00B4AB2F86A30B2F8642024326E
:1094000093421FDA9FED061A064A82ED4F1A82ED4B
:10941000501AB2F86A20521C024BA3F86A2062E08C
:10942000000000006818002038160020FC0500200D
:10943000CDCCCC3D0000C8423C000020E40300201D
:109440000AD7233C0022ED4BA3F86A201FED0C1A2B
:109450001A4682ED4F1A82ED501A44E0E74AB2F8FC
:109460005020072A3FD1E64A92ED351AE34A82EDB1
:109470004F1A82ED501A36E00022E04BA3F8662026
:10948000A3F86820A3F86A20A3F862201FED1C1A35
:109490001A4682ED4D1A1FED1E1A82ED4F1A1FED6E
:1094A000201A82ED501AD74A528FA3F85020D54A7D
:1094B000928FA3F85220D34AB2F84220A3F8542046
:1094C000D04AD28FA3F85620CE4AB2F84420A3F84F
:1094D0005820CC4AB2F84020A3F85A20C94AB2F822
:1094E0004620A3F85C20C74A128E4FF4167302FB85
:1094F00003F1C34AD2F824218A420DD1C14AD28E47
:10950000BF4BB3F82C319A4206D1BE4A128FBC4BE6
:10951000B3F82E319A4251D0B94AC2F82411B94A4F
:10952000D28EB74BA3F82C21B64A128FA3F82E2166
:109530001A4692ED4A1AB8EE411AD2ED4A1AF8EEDE
:10954000611A1FED412A21EE822AB2F82E2101EE86
:10955000902AF8EE611A02EE211AB0EE410A1A467C
:1095600092ED491AB8EE411AD2ED4A1AF8EE611A94
:109570001FED4D2A21EE822AB2F82E2101EE902A0B
:10958000F8EE611AF0EE410A42EE210A80EE201A4E
:10959000B0EE410A1A46B2F82C2101EE102AB8EEBC
:1095A000411A5FED5D1A21EE211A21EE001A934A4D
:1095B00082ED0D1A92ED0D1A82ED0E1A904AB2F854
:1095C0002C21E2B38E4AD2F82421C2B38C4AD2F8BD
:1095D00028218B4BD3F824319A4261D8884A92EDE6
:1095E0004A1AB8EE411AD2ED4A1AF8EE611A1FED86
:1095F0006C2A21EE822AB2F82E2101EE902AF8EE92
:10960000611A02EE211AB0EE410A7D4A92ED491A22
:10961000B8EE411AD2ED4A1AF8EE611A1FED782A17
:1096200021EE822AB2F82E2101EE902AF8EE611A7C
:1096300002EE211AF0EE410A80EE201A00E02AE044
:10964000B0EE410A6E4AB2F82C2101EE102AB8EEB3
:10965000411A5FED891A21EE211A21EE001A674A9C
:1096600082ED0D1A92ED0D1AD2ED0E1A31EE611A3D
:1096700082ED0F1A92ED0B1AD2ED0F1A31EE211A6C
:1096800082ED0B1A92ED0B1A82ED0C1A92ED0D1A67
:1096900082ED0E1A04E01FED9E1A584A82ED0F1A51
:1096A000574AD288032A29D1544AB2F84820052AB9
:1096B0001CDB0522514BA3F848201A4692ED101AE4
:1096C0005FEDA51AB4EEE11AF1EE10FA08DD92EDA5
:1096D000101A5FEDA91A31EE611A82ED101A1EE020
:1096E0001FEDB11A454A82ED101A18E0434AB2F84C
:1096F0004820521C414BA3F8482010E000223F4B69
:10970000A3F848203F4AD28C01EE102AB8EE411A45
:109710005FEDB91A21EE211A1A4682ED101A384A65
:10972000D288012A28DB364AD288032A24DA334A2F
:10973000D26C43F698239A4205D2B2EE041A2F4A0D
:1097400082ED111A1DE02D4A92ED111A5FEDC81A33
:10975000B4EEE11AF1EE10FA08DD92ED111A5FEDA8
:10976000CC1A31EE611A82ED111A0AE01FEDD41AFB
:10977000224A82ED111A04E01FEDD71A1F4A82ED2A
:10978000111A1E4A92ED4F1AD2ED501A31EE211ADB
:1097900082ED041A92ED4F1A82ED051A92ED501ADD
:1097A00082ED061A92ED0B1AD2ED101A31EE211A43
:1097B000D2ED111A31EE211A82ED081A92ED0C1A2F
:1097C000D2ED101A31EE211AD2ED111A31EE211A12
:1097D00082ED091A92ED081AD2ED091A31EE211A1A
:1097E00082ED071A92ED031AD2ED071A31EE611AD3
:1097F00082ED021A00BFFFF726B8000068180020AB
:1098000038160020FC05002000B5FEF71FFEFE48BC
:109810000088FE490988884200D000BDFFF70EF895
:10982000FB488088002874D0FA48D0ED090AB0EED1
:10983000600AFEF73BFEF64908660846006D88653B
:10984000F448D0ED060AB0EE600AFEF72FFEF049AC
:1098500008650846406BC863084690ED180AB8EEE4
:10986000400AD0ED2B0AF8EE600AB6EE001A11EEAF
:10987000200AD0ED140AF8EE600A30EE600ABCEE61
:10988000C00A80ED0D0AE44890ED2F0ABDEEC00A33
:1098900010EE100A00B2A1F8BE000846D0F8B400DD
:1098A00008670020C1F8B4000846806D90BB0846E8
:1098B000006F80B3D948C08803282DD10846006FB7
:1098C000D649C96A401AD24988670846C06B896F71
:1098D000401ACF49C1F88C000846D0F88C00052802
:1098E00005DC0846D0F88C0010F1050F28DAC848CE
:1098F00090ED0A0AB8EE400AD0ED230AF8EEE00A2D
:109900009FEDC71A00EE810ABCEEC00A80ED0A0A7C
:1099100016E04EE005E0FFE7BD48406BBC498862B9
:109920000EE0BB48006F38B1B948406F20B1B8486D
:10993000806AB749886203E0B548806AB4498862A2
:10994000B348806AB249096D401AB1494864084673
:10995000406CB4490988401AAD49C1F8A4000846D2
:10996000006DB04909880844A9498866AB48B0F839
:10997000780060B1A948B0F87A0040B90020A74942
:10998000C8670846B0F87800A1F87A00B3E0A348A9
:10999000B0F87A000028F9D0A048D0F880009F499C
:1099A000C96FB0FBF1F09D49C1F884000020C86781
:1099B000A1E09748C0880028E8D09648D0ED080A72
:1099C000B0EE600AFEF772FD9149C8650846C06CAA
:1099D00048659048D0ED050AB0EE600AFEF766FDD6
:1099E0008B49C8640846006B8863084690ED170AE7
:1099F000B8EE400AD0ED2B0AF8EE600AB6EE001A77
:109A000011EE200AD0ED130AF8EE600A30EE600A7B
:109A1000BCEEC00A80ED0C0AD0F8B8004867824856
:109A2000C068C1F8B8007C4890ED2F0ABDEEC00AAE
:109A300010EE100A00B2A1F8BE000846406D80BBCF
:109A40000846406F70B37548C08803282BD173480F
:109A5000C06A496F401A6E49C8670846806BC96F73
:109A6000401A6B49C1F888000846D0F888000528DC
:109A700005DC0846D0F8880010F1050F24DA6448A8
:109A800090ED0B0AB8EE400AD0ED220AF8EEE00A9B
:109A90009FED631A00EE810ABCEEC00A80ED0B0A4E
:109AA00012E005E0FFE75A48006B5949C8620BE035
:109AB0005748406F20B15648C06A5549C86203E014
:109AC0005348C06A5249C8625148C06A5049C96C7B
:109AD000401A4F4988640846806C404251490988C1
:109AE00008444B49C1F8A0000846C06C4D4909889C
:109AF0000844474948664948C08800284DDD474822
:109B0000C08805284ADA4548C08803280CD1404857
:109B1000808810B93E48C08860B1404890ED3A0A4C
:109B20003B4880ED070A05E03C4890ED3A0A38488A
:109B300080ED070A364890ED070ABDEEC00A80EDB9
:109B4000040AD0ED070A90ED040AB8EEC00A30EE20
:109B5000C00AD0ED080A30EE200A80ED080A90ED28
:109B6000080AF7EE000AB4EEE00AF1EE10FA0CDB98
:109B70000069401C26490861084690ED080AF7EE86
:109B8000000A30EE600A80ED080A2148FEF7A0FDC9
:109B90001F48D0F8A80024490860AFE21F48C088D9
:109BA000062817D102201A4908610846FEF790FDE1
:109BB0001748808810B91648C08828B10020174976
:109BC00008811A481A4908601148D0F8A8001649B7
:109BD000086093E21148C088072879D10F48B0F88F
:109BE000F000032875D10020DFED120AB0EE600A04
:109BF0000A49D1ED3F0A91ED401A70EE810AB0EEAC
:109C0000600AF7EE000A17E00400002008000020B8
:109C1000A817002068180020CC1400203816002057
:109C2000CDCC4C3FDC0500209C150020D1EA00087B
:109C30002800002000000000B4EEE00AF1EE10FA67
:109C40005DDBFDEEC00A10EE901A08B200EE900A3D
:109C5000F8EEE00A70EE600AFE49C1ED400AD1F864
:109C6000F41081420CDBFC4909680144FA4A116096
:109C7000F849D1F8F410091AF64AC2F8F41041E094
:109C8000F449D1F8F41000290FDBF3490968F14ACF
:109C9000D2F8F4201144F04A11600021ED4AC2F8D4
:109CA000F4100421A2F8F0102CE0EA49D1F8F410E5
:109CB000424291420EDCE8490968091AE64A1160FD
:109CC000E449D1F8F4100144E24AC2F8F41019E072
:109CD0000FE118E0DF49D1F8F410002912DCDE4969
:109CE0000968DC4AD2F8F420891ADB4A11600021A5
:109CF000D84AC2F8F4100421A2F8F01002E0D549C5
:109D000081ED400A00BFD348B0F8F000062875D1B5
:109D100000205FED380AB0EE600ACE49D1ED3F0A6F
:109D200091ED401A70EE810AB0EE600AF7EE000A7B
:109D3000B4EEE00AF1EE10FA5CDBFDEEC00A10EEC4
:109D4000901A08B200EE900AF8EEE00A70EE600A8F
:109D5000C049C1ED400AD1F8F41081420CDBBE4984
:109D600009680144BC4A1160BA49D1F8F410091AD3
:109D7000B84AC2F8F41040E0B649D1F8F41000290E
:109D80000FDBB5490968B34AD2F8F4201144B24A4E
:109D900011600021AF4AC2F8F4100721A2F8F010B8
:109DA0002BE0AC49D1F8F410424291420CDCAA49B4
:109DB0000968091AA84A1160A649D1F8F4100144AB
:109DC000A44AC2F8F41018E0A249D1F8F41000290E
:109DD00013DCA14909689F4AD2F8F420891A9E4AE7
:109DE000116000219B4AC2F8F4100721A2F8F0107C
:109DF00003E003E0974981ED400A00BF9548B0F8C1
:109E0000F000092870D100205FED760AB0EE600AFC
:109E10009049D1ED3F0A91ED401A70EE810AB0EE03
:109E2000600AF7EE000AB4EEE00AF1EE10FA5CDB2D
:109E3000FDEEC00A10EE901A08B200EE900AF8EE9D
:109E4000E00A70EE600A8349C1ED400AD1F8F410CF
:109E500081420CDB8049096801447F4A11607D49D9
:109E6000D1F8F410091A7B4AC2F8F41040E079499D
:109E7000D1F8F41000290FDB77490968754AD2F848
:109E8000F4201144744A11600021724AC2F8F4109F
:109E90000A21A2F8F0102BE06E49D1F8F4104242EA
:109EA00091420CDC6C490968091A6B4A11606949D6
:109EB000D1F8F4100144674AC2F8F41018E065497B
:109EC000D1F8F410002913DC63490968614AD2F81B
:109ED000F420891A604A116000215E4AC2F8F41029
:109EE0000A21A2F8F01003E0FEE05A4981ED400A91
:109EF00004E15848C088082875D15648B0F80401D4
:109F0000032876D100205FEDB50AB0EE600A514912
:109F1000D1ED440A91ED451A70EE810AB0EE600A67
:109F2000F7EE000AB4EEE00AF1EE10FA5DDBFDEEAA
:109F3000C00A10EE901A08B200EE900AF8EEE00A9D
:109F400070EE600A4349C1ED450AD1F8081181421B
:109F50000CDB4149096801443F4A11603D49D1F891
:109F60000811091A3B4AC2F8081141E03949D1F8F1
:109F7000081100290FDB38490968364AD2F8082150
:109F80001144354A11600021324AC2F808110421F7
:109F9000A2F804112CE02F49D1F808114242914255
:109FA0000CDC2D490968091A2B4A11602949D1F89E
:109FB00008110144274AC2F8081119E02549D1F8CF
:109FC0000811002914DC24490968224AD2F8082122
:109FD000891A214A116000211E4AC2F80811042181
:109FE000A2F8041104E084E003E01A4981ED450A77
:109FF00000BF1848B0F8040106287FD100205FEDAB
:10A00000F30AB0EE600A1349D1ED440A91ED451A06
:10A0100070EE810AB0EE600AF7EE000AB4EEE00AD4
:10A02000F1EE10FA61DBFDEEC00A10EE901A08B2F4
:10A0300000EE900AF8EEE00A70EE600A0549C1ED04
:10A04000450AD1F80811814211DB0349096801442E
:10A05000014A03E0381600209C15002011602B49AE
:10A06000D1F80811091A294AC2F8081140E0274915
:10A07000D1F8081100290FDB25490968234AD2F8D5
:10A0800008211144224A11600021204AC2F8081117
:10A090000721A2F804112BE01C49D1F80811424213
:10A0A00091420CDC1A490968091A194A11601749CA
:10A0B000D1F808110144154AC2F8081118E01349F3
:10A0C000D1F80811002913DC114909680F4AD2F8A8
:10A0D0000821891A0E4A116000210C4AC2F80811A1
:10A0E0000721A2F8041103E008E0084981ED450AC0
:10A0F00004E00848D0F8A800054908609FED060A6A
:10A10000034880ED0C0A00BFFFF787BB381600201C
:10A110009C150020A81700200000000070470000D8
:10A12000BFF34F8F0648006800F4E060054908431C
:10A13000001D03490860BFF34F8F00BFFEE700001A
:10A140000CED00E00000FA05BFF34F8F06480068F1
:10A1500000F4E06005490843001D03490860BFF3AF
:10A160004F8F00BFFEE700000CED00E00000FA0595
:10A1700010B55C211B48FEF724F89FED1B0A194817
:10A1800080ED080A9FED190A80ED090A9FED180A73
:10A1900080ED0B0A1748008800EE100AB8EE400A5E
:10A1A000DFED150A20EE200A1448D0ED000A20EE5B
:10A1B000200AF7EE000A80EE801A0A4880ED0D1A98
:10A1C0009FED0B0A80ED0C0A9FED0D0A80ED120A3F
:10A1D0009FED0C0A80ED140A4FF480200149C860FD
:10A1E00010BD00009C150020CDCC8C3FCDCC8CBF89
:10A1F0000000000008000020000048420C00002081
:10A200000AD7A33B00008037426D4168891A8165F7
:10A2100041684165C16801EBD173826DB2EB630F98
:10A2200004DDC268816D891A81650BE0C268514204
:10A2300001EBD173826DB2EB630F03DAC268816DFB
:10A240001144816590ED0C0AD0ED0D0A20EE200A34
:10A2500080ED0F0A90ED0F0AD0ED0B0A20EE200AD8
:10A2600080ED100A90ED100AD0ED0E0A30EE600A73
:10A2700080ED130A90ED130AD0ED120AB4EEE00A55
:10A28000F1EE10FA08DD90ED0E0AD0ED120A30EE74
:10A29000200A80ED0E0A17E090ED130AD0ED120AA5
:10A2A000F1EE600AB4EEE00AF1EE10FA08D290ED99
:10A2B0000E0AD0ED120A30EE600A80ED0E0A03E0BD
:10A2C00090ED100A80ED0E0AD0E90012891A00EE16
:10A2D000101AB8EEC00AD0ED140A20EE200A80ED64
:10A2E000040A90ED040AF0EE000AB4EEE00AF1EE82
:10A2F00010FA08DD90ED040AF1EE000A30EE600A73
:10A3000080ED040A10E090ED040AF8EE000AB4EEC5
:10A31000E00AF1EE10FA07D290ED040AF1EE000A1D
:10A3200030EE200A80ED040A90ED050AD0ED040A13
:10A3300020EE200A80ED060A90ED060AD0ED0E0A06
:10A3400030EE200A80ED070A90ED070AD0ED080AEA
:10A35000B4EEE00AF1EE10FA04DD90ED080A80EDAB
:10A360000A0A11E090ED070AD0ED090AB4EEE00AFE
:10A37000F1EE10FA04D290ED090A80ED0A0A03E02A
:10A3800090ED070A80ED0A0A7047000010B54021E1
:10A390000E48FDF716FF9FED0E0A0C4880ED070AE8
:10A3A0009FED0C0A80ED080AB6EE000A80ED030A64
:10A3B0009FED090A80ED0A0A9FED080A80ED0D0A5B
:10A3C0009FED070A80ED0E0A10BD0000F815002071
:10A3D000A4707D3FA4707DBF0AD7233C0AD7233DDC
:10A3E000022B073D7047000010B50C480078401C58
:10A3F0000A4908700A49486AFDF7C2FEFDF7B6FE31
:10A400000849A1F81A010846B0F81A01B1F81C1160
:10A4100008440449A1F8180110BD0000E40500201B
:10A42000001000403816002010B50C480078401C81
:10A430000A4908700A49486AFDF7A2FEFDF796FE30
:10A440000849A1F81C010846B0F81A01B1F81C111E
:10A4500008440449A1F8180110BD0000E5050020DA
:10A460000010004038160020B0EE402A32EE600A9C
:10A47000F0EE402AF4EEC12AF1EE10FA02DD30EEE1
:10A48000810A7047B1EE610AF4EEC02AF1EE10FACB
:10A4900002D230EEE10AF4E7B0EE420AF1E710B57D
:10A4A000002448F2210000F007F84FF6FF710C1A63
:10A4B000200401EA104010BD70B504464FF48051ED
:10A4C0000B4801F0E5FF204600F082F800F068F844
:10A4D0004FF6FF7000F07CF84004050C4FF48051FB
:10A4E000034801F0D7FF00F067F8284670BD000070
:10A4F000000C014010B5D0212148FDF762FE214833
:10A5000000883221484300EE100AB8EEC00A1E4807
:10A51000D0ED000A20EE200AF7EE000A80EE801A45
:10A52000174880ED2B1A40F6B8301549C1F89C0049
:10A53000042088808003C1F8C8009FED140A0846F3
:10A5400080ED330A124C1ECC08301EC00C4B114C4F
:10A5500017CC183317C30A4A0F4CD4E901312068CD
:10A56000E468C2E90C14C2E90A0310460B4CD4E9B2
:10A5700001132268E468C0E91034C0E90E2110BD5F
:10A58000CC140020080000200C00002000008037C0
:10A59000DC3A0108EC3A0108FC3A01080C3B0108DE
:10A5A00010B54FF4004303220421024801F079FF63
:10A5B00010BD0000000C014010B54FF40043032211
:10A5C0001821024801F06DFF10BD0000000C014091
:10A5D00070B504460025002606E0681C80B20546DA
:10A5E000C82801DD002070BD02210F4806F0D4F913
:10A5F0000028F2D021460C4806F09FF9002506E01D
:10A60000681C80B20546C82801DD0020EBE7012167
:10A61000054806F0C1F90028F2D0034806F089F990
:10A6200006463046DFE700000038004070477047BC
:10A6300008B51848006840F47000164908601648CC
:10A64000006840F00100144908600846406840F086
:10A65000800048600020009002E00098401C0090BC
:10A6600044F6206100988842F7D300200A494860E8
:10A67000C8620846006809490840074908604FF465
:10A680001F0088600846006820F48020086006F0FB
:10A69000D1FF08BD88ED00E000100240FFFFF6FE8C
:10A6A00010B50121054807F03EF828B10121034803
:10A6B00007F036F802F07EF910BD0000002C0140D2
:10A6C00000B587B040F20E7006F0F8F84FF4C060A5
:10A6D00006F0F4F840F2036006F0F0F84FF480530F
:10A6E00003221021214801F0DCFE40F2036006F055
:10A6F000E5F84FF40053032218211C4801F0D1FE65
:10A7000040F2036006F0DAF84FF48043032204219C
:10A71000164801F0C6FE40F2036006F0CFF84FF491
:10A72000004303221821114801F0BBFE104806F037
:10A7300007F94FF482700090002001904FF4006000
:10A7400002908010039001200590082006900020C0
:10A7500004906946064806F027F90721044806F0E8
:10A76000DDF8034806F0E0F807B000BD000C01403A
:10A770000038004010B58AB0002405AA0021114815
:10A7800000F052FD05980090069801909DF81C007D
:10A790008DF808009DF81D008DF809009DF81E0039
:10A7A0008DF80A0000BF06E00DF11F00015D1438AE
:10A7B0000155601CC4B2082CF6DB684600F04EFE62
:10A7C0000AB010BD0064004000BFFEE702E008C808
:10A7D000121F08C1002AFAD170477047002001E01B
:10A7E00001C1121F002AFBD1704706283AD2DFE8C8
:10A7F00000F0030C141D262F00220A7004224A7058
:10A8000003228A7006228A8035E000220A7007221D
:10A810004A7005228A708A802DE000220A70042284
:10A820004A7003228A700C228A8024E000220A7077
:10A8300004224A7003228A7018228A801BE00022B8
:10A840000A7004224A7003228A703C228A8012E035
:10A8500000220A7004224A7003228A704FF4167292
:10A860008A8008E000220A7005224A7004228A7059
:10A8700006228A8000BF00BF7047000010B5002488
:10A8800040F2033007490880084606F021FA2E21DD
:10A89000044806F07DFA04460CB1042010BD2046A1
:10A8A000FCE70000FC05002010B500245C212248D4
:10A8B000FDF787FC5C212148FDF783FC4FF44170D4
:10A8C0001D49088002211C4806F056FA04467CB156
:10A8D00040F203301849088001204880084606F0FD
:10A8E000F7F92E21144806F053FA0446042010BD4F
:10A8F0001148008840F2033188420DD008460E49C5
:10A900000880084606F0E4F92E210B4806F040FACC
:10A9100004464CB10420EAE72E21074806F02CFA41
:10A920000446054806F0C8F85C2203490348FDF7D1
:10A930002FFC0120DBE70000FC050020580600206A
:10A9400010B500240A4806F0B7F85C220949084807
:10A95000FDF742FC48B12E21054806F019FA0446DD
:10A960005C2203490348FDF713FC204610BD00009C
:10A97000FC0500205806002010B586B0044601A949
:10A980002046FFF732FF40F2197005F097FF40F2C2
:10A99000026005F093FF4FF4C06005F08FFF4FF4A5
:10A9A000006303224821204801F07BFD4FF48053CF
:10A9B000032218211C4801F074FD03A9002001F0B6
:10A9C0005DF91A4800F034F800208DF810008DF879
:10A9D00011008DF812008DF813008DF814008DF819
:10A9E00015008DF80C009DF804008DF80D009DF801
:10A9F00005008DF80E009DF806008DF80F00BDF8DB
:10AA00000800ADF8160003A9084800F078FB022101
:10AA1000064800F005FC00220121142005F0D8FEB4
:10AA2000002006B010BD0000000801400064004096
:10AA300010B504460548844207D140F2194005F09C
:10AA40005DFF40F2194005F049FF10BD0064004071
:10AA500010B50020FE4908600846006820F0040098
:10AA6000001D08600846006820F0080008600846DD
:10AA7000006820F0100008600846006820F0200000
:10AA800008600846006820F040000860084600683A
:10AA900020F0800008600846006820F4807008609C
:10AAA0000846006820F4007008600846006820F43A
:10AAB000806008600846006820F40060086008466E
:10AAC000006820F4805008600846006820F40050B8
:10AAD00008600846006820F4804008600846006866
:10AAE00020F4004008600846006820F480300860C8
:10AAF0000846006820F4003008600846006820F42A
:10AB0000802008600020D34908600846006820F0D3
:10AB10000400001D08600846006820F008000830A6
:10AB200008600846006820F01000103008600846F1
:10AB3000006820F02000203008600846006820F0FF
:10AB40004000403008600846006820F080008030F7
:10AB500008600846006820F4807000F58070086086
:10AB60000846006820F4007000F500700860084690
:10AB7000006820F4806000F5806008600846006886
:10AB800020F4006000F5006008600846006820F4CA
:10AB9000805000F5805008600846006820F400509E
:10ABA00000F5005008600846006820F4804000F579
:10ABB000804008600846006820F4004000F500402E
:10ABC00008600846006820F4803000F58030086096
:10ABD0000846006820F4003000F5003008600846A0
:10ABE000006820F4802000F5802008600846026894
:10ABF00097480168002001F017F800209449086088
:10AC00000846006820F00400001D08609248807823
:10AC1000096860F3C3018E4801608F48807841085D
:10AC20008B48006861F30410894908608A4880787D
:10AC300081088748006861F34510854908608648A7
:10AC40008078C1088248006861F3861080490860F6
:10AC50008148807801097E48006861F3C7107C490B
:10AC600008607D48807841097948006861F30820D0
:10AC7000774908607848807881097548006861F3F1
:10AC800049207349086074488078C1097048006899
:10AC900061F38A206E4908600846006820F400606D
:10ACA00008600846006820F4805008600846006884
:10ACB00020F4005008600846006820F480400860D6
:10ACC0000846006820F4004008600846006820F448
:10ACD000803008600846006820F4003000F500303D
:10ACE00008600846006820F4802008600020594968
:10ACF00008600846006820F00400001D086008464F
:10AD0000006820F00800083008600846006820F05D
:10AD10001000103008600846006820F02000203045
:10AD200008600846006820F040004030086008468F
:10AD3000006820F08000803008600846006820F439
:10AD4000807000F5807008600846006820F400708C
:10AD500000F5007008600846006820F4806000F587
:10AD6000806008600846006820F4006008600846BB
:10AD7000006820F4805008600846006820F4005005
:10AD800008600846006820F48040086008460068B3
:10AD900020F4004000F5004008600846006820F4F8
:10ADA000803000F5803008600846006820F40030EC
:10ADB00000F5003008600846006820F4802000F5A7
:10ADC000802008600846026821480168012000F0E0
:10ADD0002BFF00201E4908600846006820F0040090
:10ADE000001D08601C488078096860F3C30118489A
:10ADF00001601948807841081548006861F3041023
:10AE0000134908601448807881081148006861F38C
:10AE100045100F49086010488078C1080C48006848
:10AE200061F386100A4908600B48807801090848D8
:10AE3000006861F3C7100649086007488078410937
:10AE40000348006861F3082001490860024805E0F2
:10AE5000180000201C000020FC05002080788109DB
:10AE60005848006861F34920564908605648807880
:10AE7000C1095448006861F38A20524908600846B5
:10AE8000006820F4006008600846006820F48050E4
:10AE900008600846006820F4005008600846006812
:10AEA00020F4804008600846006820F4004000F567
:10AEB000004008600846006820F4803000F58030CB
:10AEC00008600846006820F4003000F50030086093
:10AED0000846006820F48020086000203B49086094
:10AEE0000846006820F00400001D0860084600685D
:10AEF00020F00800083008600846006820F01000C4
:10AF0000103008600846006820F0200020300860FB
:10AF10000846006820F0400040300860084600689D
:10AF200020F08000803008600846006820F48070BF
:10AF300000F5807008600846006820F4007000F595
:10AF4000007008600846006820F4806000F58060AA
:10AF500008600846006820F4006008600846006841
:10AF600020F4805008600846006820F40050086013
:10AF70000846006820F4804008600846006820F415
:10AF8000004000F5004008600846006820F480306A
:10AF900000F5803008600846006820F4003000F5B5
:10AFA000003008600846006820F4802000F580200A
:10AFB00008600846026803480168022000F034FE79
:10AFC00010BD000018000020FC0500201C0000201F
:10AFD00010B50021837A012202FA03F13E4A126879
:10AFE00042F001023C4B1A603B4A1C3212688A4311
:10AFF000394B1C331A60C289DAB9374A0C321268ED
:10B000008A43354B0C331A60C288344B03EA024240
:10B0100043881A434389304C403444F833208288B3
:10B020002E4B03EA024203881A43438904EBC3030D
:10B030005A60C289012A1BD1274A0C3212680A437E
:10B04000254B0C331A600288244B03EA02424388E2
:10B050001A434389204C403444F8332082881F4BE4
:10B0600003EA0242C3881A43438904EBC3035A60CC
:10B0700082893AB9184A121D12688A43164B1B1D61
:10B080001A6006E0144A121D12680A43124B1B1D77
:10B090001A6002893AB9104A143212688A430E4B78
:10B0A00014331A6006E00C4A143212680A430A4B41
:10B0B00014331A60027C012A06D1074A1C32126836
:10B0C0000A43054B1C331A60034A126822F001023E
:10B0D000014B1A6010BD0000006600400000FFFF39
:10B0E00010B5024602EB9110006801F01F04012325
:10B0F000A340184008B1012010BD0020FCE770B546
:10B1000002464FF6FF730020146824F00204146016
:10B11000146844F00104146000E05B1E546804F0FD
:10B1200001040CB9002BF8D1546804F001040CB9E7
:10B13000002074E00C784FF0404505EA84744D78A7
:10B140004FF0407606EA05652C438D784FF4702663
:10B1500006EA05452C43CD784FF4E00606EA05558E
:10B160002C434D896D1EC5F309052C43D4610C7920
:10B17000012C04D1146844F08004146003E01468C6
:10B1800024F0800414604C79012C04D1146844F03C
:10B190004004146003E0146824F0400414608C79C7
:10B1A000012C04D1146844F02004146003E01468F6
:10B1B00024F020041460CC79012C04D1146844F0EC
:10B1C0001004146003E0146824F0100414600C7A76
:10B1D000012C04D1146844F00804146003E01468DE
:10B1E00024F0080414604C7A012C04D1146844F053
:10B1F0000404146003E0146824F004041460146868
:10B2000024F0010414604FF6FF7300E05B1E5468E5
:10B2100004F001040CB1002BF8D103B1012070BD82
:10B2200042690A434261704710B500F5D87303EBD9
:10B2300001131B6803F004031372137A3BB900F582
:10B24000D87303EB01131B685B0D136006E000F578
:10B25000D87303EB01131B68DB08536000F5D87348
:10B2600003EB01131B6803F00203537200F5DA735A
:10B2700003EB01131B681B0AD37400F5DA7303EBAD
:10B2800001131B6803F00F03937200F5DC7303EBEB
:10B2900001131B68D37200F5DC7303EB01131B6809
:10B2A0001C0A147300F5DC7303EB01131B681C0C00
:10B2B000547300F5DC7303EB01131B681C0E9473CD
:10B2C00000F5DE7303EB01131B68D37300F5DE7327
:10B2D00003EB01131B681C0A147400F5DE7303EB07
:10B2E00001131B681C0C547400F5DE7303EB01138F
:10B2F0001B681C0E947421B9C36843F02003C3601B
:10B3000003E0036943F02003036110BD30B502463A
:10B310000B460021906800F08060B0F1806F00D192
:10B3200010E0906800F00060B0F1006F01D10121E1
:10B3300008E0906800F08050B0F1805F01D10221F8
:10B3400000E00321032901D1032030BD02F5C070C4
:10B3500000EB0110006800F0010402F5C07000EB82
:10B3600001100460187A88B918883B4C04EA4050F0
:10B370005C7A204302F5C07404EB01142468204376
:10B3800002F5C07404EB0114206013E06FF00704B1
:10B39000586804EAC0001C7A20435C7A204302F516
:10B3A000C07404EB01142468204302F5C07404EB5C
:10B3B0000114206002F5C27000EB0110006820F05B
:10B3C0000F0402F5C27000EB0110046002F5C270B8
:10B3D00000EB011000689C7A204302F5C27404EB74
:10B3E00001142060987B4FF07F4404EA00605C7B8E
:10B3F0004FF47F0505EA044420431C7B2D1205EA27
:10B4000004242043DC7A204302F5C47404EB0114C5
:10B410002060987C2C0404EA00605C7C2D0205EA24
:10B42000044420431C7C2D1205EA04242043DC7BC9
:10B43000204302F5C67404EB0114206002F5C070CD
:10B4400000EB0110006840F0010402F5C07000EB51
:10B4500001100460084678E70000E0FF2DE9F04F96
:10B4600087B00446142102A8FCF7ABFE4FF0000B96
:10B47000DA460027002001908046002500268146FC
:10B48000606800287DD1E17A207B01EB00201FFA63
:10B4900080F8617BA07B01EB002085B2E17B207C02
:10B4A00001EB002086B2617CA07C01EB00201FFA3A
:10B4B00080F9E07B01280ED16DB9B8F1000F0AD1F7
:10B4C000F7490883F748B0F8180144F6206148436B
:10B4D0000014F349C861E07B022828D1F2480068D3
:10B4E000B5EB104F23D1F048008880B240451ED103
:10B4F0000120EB498881C881E07A8DF81300217B17
:10B500008DF81410617B8DF81510A17B8DF8161045
:10B51000E17B8DF81710E54881788DF8181006202A
:10B520008DF812000120039002A800F043FBE07B9D
:10B53000032850D1DC480068B5EB104F4BD1DA48F6
:10B54000008880B2404546D1207C012829DB207C40
:10B55000FA2826DC0020D2498881207CD349488003
:10B560000220CF490883E07A8DF81300217B8DF803
:10B570001410617B8DF81510A17B8DF81610E17BFE
:10B5800000E03EE08DF81710C84881788DF818105B
:10B5900006208DF812000120039002A800F00AFB9B
:10B5A00019E0E07A8DF81300217B8DF81410617B8F
:10B5B0008DF81510A17B8DF81610E17B8DF8171012
:10B5C000FF218DF8181006208DF81200012003903D
:10B5D00002A800F0EFFAE07B042809D14FF6FF70D3
:10B5E000854205D1804503D10020AD49088388817B
:10B5F000E07B642802D1AB48A0F88A5007B0BDE8D0
:10B60000F08F6068C0F30647A088C0F3072B94F85A
:10B6100004A0A6484088504503D0BAF1000F00D0DE
:10B62000ECE7E17A207B01EB00201FFA80F8617BD8
:10B63000A07B01EB002085B2E17B207C01EB0020A8
:10B6400086B2617CA07C01EB00201FFA80F9ABF18F
:10B6500041000F287ED2DFE800F008BDFBFAF9F8C0
:10B660007D7D7D7DF7F6F5F4F30087B9E07A8F49AB
:10B670008880207BC880084685820681A0F80E90CD
:10B680008748C08840F001008549C88089E0012FC3
:10B6900010D18648A0F81080458330B28349488491
:10B6A0000846A0F824907E48C08840F002007C49FB
:10B6B000C88076E0022F18D1E07A7C49C884207BCC
:10B6C000A1F8480008460585E07B4885207C8885F0
:10B6D000607CC885A07C40B2A1F84A007048C08850
:10B6E00040F004006E49C8805BE0032F1DD16F4815
:10B6F000A0F83080607B00EB800040006B494886FA
:10B70000A07B00EB8000400088860846C686607CEF
:10B7100000EB800040000887A07C48876048C08814
:10B7200040F008005E49C8803BE0042F1AD15F4812
:10B73000A0F83C80607B5D49C887A07BA1F84000F1
:10B740000846A0F84260607CA1F84400A07CA1F803
:10B75000460000E00CE25248C08840F0100050491A
:10B76000C8801EE0052F1CD1E07A5049A1F8520094
:10B77000207BA1F85400607BA1F84E00A07BA1F8CB
:10B7800050000846A0F85860607CA1F85A00A07CE0
:10B7900040B2A1F84C004248C08840F02000404927
:10B7A000C8803F48C0883F2813D13D48408A20F0D8
:10B7B00001003B494882012008808DF813008DF874
:10B7C00012003A48408840F4A240039002A800F0DA
:10B7D000F1F9CEE1E07AD8B9002032490881084673
:10B7E000C088082807D10846B0F80401052802DA05
:10B7F0000520A1F804012B48C088072808D1294852
:10B80000B0F8F000082803DA08202649A1F8F00073
:10B81000E07A012801D123490881E07A022802D187
:10B8200001201F494880E07A032802D101201D49E8
:10B830004881E07A04280CD101201A49888161E00E
:10B840005DE17BE17EE18BE18EE180E071E06CE027
:10B8500067E0E07A05280ED1207B20B9012011494C
:10B86000A1F8F0004EE0207B01284BD108200D49C3
:10B87000A1F8F00046E0E07A062819D1207B48B113
:10B8800001200849C881207B00EB80004000A1F81E
:10B89000200137E000200349C881A1F8200131E0F0
:10B8A000DC0600203816002010000020FC050020D7
:10B8B000E07A07280ED1207B20B90120AE49A1F8FB
:10B8C00004011FE0207B01281CD10520AA49A1F812
:10B8D000040117E0E07A082806D10220A7498880F1
:10B8E0000120A74908800DE0E07A09280AD1207BD1
:10B8F000012802D1A049488204E0207B10B902202F
:10B900009D494882E07A8DF8130001208DF81200DD
:10B910009A48408840F4A440039002A800F04AF9F5
:10B9200027E13F209649888023E10F209449088130
:10B930001FE101208DF813008DF812008F48408818
:10B9400040F4AA40039002A800F034F911E1E07A33
:10B9500058BB00208DF8130000218DF814108DF8CD
:10B9600015108DF81610844890F844118DF81710B2
:10B97000B0F84401010A8DF818107F48D0F844014E
:10B98000010C8DF819107C48D0F84401010E8DF897
:10B990001A1008208DF812007848408840F4AC4016
:10B9A000039002A800F006F9A8E0E07A012832D15D
:10B9B000714981F8320106EB0940C1F84C010120C0
:10B9C0008DF8130000218DF814108DF815108DF8E6
:10B9D0001610694890F84C118DF81710B0F84C010A
:10B9E000010A8DF818106448D0F84C01010C8DF84C
:10B9F00019106148D0F84C01010E8DF81A1008207A
:10BA00008DF812005D48408840F4AC40039002A8D5
:10BA100000F0D0F872E0E07A02283CD101205649CB
:10BA200081F831010846A0F8365106EB0940C1F80B
:10BA3000500102208DF8130000218DF814104E489B
:10BA400090F836118DF81510B0F8360101128DF806
:10BA50001610494890F84C118DF81710B0F85001A5
:10BA6000010A8DF818104448D0F85001010C8DF8E7
:10BA700019104148D0F85001010E8DF81A10082015
:10BA80008DF812003D48408840F4AC40039002A875
:10BA900000F090F832E0E07A03282FD106EB09405D
:10BAA0003549C1F84C0103208DF8130000218DF8B1
:10BAB00014108DF815108DF816102F4890F84C11B1
:10BAC0008DF81710B0F84C01010A8DF818102A48AB
:10BAD000D0F84C01010C8DF819102748D0F84C0112
:10BAE000010E8DF81A1008208DF8120023484088A6
:10BAF00040F4AC40039002A800F05CF839E0BAF1E1
:10BB0000000F00D135E01E48408998B9E07A18B995
:10BB100001201B49488102E0022019494881012087
:10BB20008DF813008DF812006068039002A800F0F1
:10BB300041F802E00120134948701AE00120114940
:10BB4000887016E06068C0F3C55001906068C0F36B
:10BB5000064704F10B023946019800F047FE08E061
:10BB600001200849C87004E001200649087100E07E
:10BB700000BF00BF00BF41E538160020FC050020D3
:10BB8000DC060020F826002010B50021084800F04F
:10BB9000C7F80121064800F0C3F80221044800F06C
:10BBA000BFF80320FEF7E8FEFEF752FF10BD0000CD
:10BBB0000064004070B586B00546002428680190F6
:10BBC0006868029004208DF80C0000208DF80D00AC
:10BBD000A87A8DF80E0000BF07E005F10B00015DAB
:10BBE0000DF10F000155601C84B2082CF5DB01A992
:10BBF0000C48FFF78BFB0646002401E0601C84B272
:10BC00003146084800F0B4F818B940F6FF70844295
:10BC1000F4DB40F6FF70844202DB012006B070BD09
:10BC20000020FBE70064004017B585B00446ADF87E
:10BC30000A400020ADF80C000120ADF80E004FF6D0
:10BC4000FF71069801EA1040ADF80000069880B236
:10BC5000ADF80200079801EA1040ADF8040007981B
:10BC600080B2ADF806000020ADF8080001208DF884
:10BC700010006846FFF7ACF908B010BD10B50246D9
:10BC800009B900BFFEE732B1012A16D0022A20D03E
:10BC9000032A41D12EE000234B71CB718B7140F20E
:10BCA000FF334B8100230B724B7002238B700023F8
:10BCB000CB700B714B720B7030E00123CB810023F2
:10BCC0000B740B810B804B808B80CB808B814B81E5
:10BCD00024E0002005E0002401F10B031C54431C68
:10BCE000D8B20828F7D300238B724B600B724B72CB
:10BCF0000B6013E0002005E0002401F10B031C544D
:10BD0000431CD8B20828F7D300238B724B600B7208
:10BD1000CB744B720B6001E000BFFEE700BF10BDAB
:10BD200051B9826842F08002826000BF826802F0EE
:10BD30008002802AFAD01AE001290BD1826842F4ED
:10BD40000042826000BF826802F40042B2F5004FF8
:10BD5000F9D00CE002290AD1826842F40002826024
:10BD600000BF826802F40002B2F5000FF9D07047FC
:10BD700030B502460020002321B1012907D0022955
:10BD80000FD109E09468144D04EA05030BE09468B0
:10BD9000124D04EA050306E09468114D04EA050318
:10BDA00001E0002300BF00BF53B1A3F18064E41E93
:10BDB00044B10C4D2C443CB10B4D2C4444B905E02E
:10BDC000022007E0012005E0012003E0012001E05E
:10BDD000002000BF00BF30BD0300000400030008C6
:10BDE0000000031003FDFFFB0003FDF790B921B134
:10BDF000012905D002290BD106E0114B1A6008E099
:10BE00000F4B1B1D1A6004E00D4B08331A6000E055
:10BE100000BF13E021B1012906D002290CD107E0AF
:10BE2000074B0C331A6008E0054B10331A6004E02E
:10BE3000034B14331A6000E000BF00BF70470000DE
:10BE40000874004010B540F21D4004F057FD40F268
:10BE50001D4004F043FD10BD30B90749096841F0A9
:10BE60000101054A116005E00349096841F4803188
:10BE7000014A1160704700000074004070B505462B
:10BE80000C462DB9224600210120FFF7AFFF04E048
:10BE9000224600210846FFF7A9FF70BD30B90749C7
:10BEA000096821F00401054A116005E003490968A9
:10BEB00021F48021014A11607047000000740040A5
:10BEC00050B90B4A126822F0C002094B1A601A4698
:10BED00012680A431A600AE0054A126822F4400216
:10BEE000034B1A601A46126842EA01421A60704710
:10BEF0000074004010B504466FF0040005F09EFB8E
:10BF0000E11704EB5171C1F3C701074A11701046E4
:10BF1000007800EB4001C1EBC0104FF6FF7101EA61
:10BF2000C0000249088010BDE6050020E805002099
:10BF30000146114A12884A434FF0E0235A61002219
:10BF40009A611A46126942F001021A6100BF4FF06D
:10BF5000E022106900F001021AB100F48032002AD8
:10BF6000F5D04FF0E022126922F001024FF0E023F9
:10BF70001A6100229A617047E805002010B540F26E
:10BF80001D7004F09BFC40F2026004F097FC10234B
:10BF900003220021144800F084FA40F2026004F009
:10BFA0008DFC2023032200210F4800F07AFAFFF7CE
:10BFB00049FF0020FFF772FF00210846FFF780FFCE
:10BFC0000020FFF76BFF0020FFF746FF0120FFF77F
:10BFD00065FF00210120FFF773FF0120FFF75EFFDF
:10BFE0000120FFF739FF10BD000801401FB54FF4D5
:10BFF000C06004F063FC40F2047004F05FFC0020B9
:10C00000ADF80000ADF80200ADF804004FF6FF7087
:10C0100002900020ADF806008DF80C006946034838
:10C0200005F02EFB014805F022FB1FBD001000406B
:10C0300010B540F2026004F041FC042303221021F9
:10C040004C4800F02EFA002204214A4800F024FA5D
:10C050004FF4C06004F032FC0121474800F088FA38
:10C0600040F2026004F02AFC4023032210214148E0
:10C0700000F017FA40F2036004F020FC08230322CA
:10C0800028213E4800F00DFA40F2036004F016FC4F
:10C09000102303221946394800F003FA40F20360E6
:10C0A00004F00CFC802303221021344800F0F9F93D
:10C0B00040F2036004F002FC4023032210212F48C9
:10C0C00000F0EFF940F2036004F0F8FB4FF48073E6
:10C0D00003221021294800F0E4F940F2036004F043
:10C0E000EDFB4FF4007303221021244800F0D9F92E
:10C0F00040F2026004F0E2FB8023032210211D487D
:10C1000000F0CFF940F2036004F0D8FB01230322D2
:10C1100010211A4800F0C5F940F2036004F0CEFB8C
:10C12000022303221021154800F0BBF940F20360FE
:10C1300004F0C4FB042303221021104800F0B1F9DD
:10C14000012210210D4800F0A7F9002280210948A2
:10C1500000F0A2F900220121084800F09DF9002218
:10C160000221064800F098F900220421034800F05B
:10C1700093F910BD0008014000023000000C01409E
:10C180001FB54FF4C06004F099FB40F20B6004F05F
:10C1900095FB0020ADF800002020ADF80200002043
:10C1A000ADF8040040F6B83002900020ADF806006B
:10C1B00001208DF80C006946094805F061FA01215B
:10C1C000074805F059FA0121054805F0A5FA044889
:10C1D00005F048FA00220121192004F0F9FA1FBDE8
:10C1E000002C01400348006940F0800001490861CB
:10C1F000704700000020024000B50346012200BF46
:10C2000000F00CF802465B1E012A01D1002BF7D189
:10C21000012A00D10422104600BD000000200A4976
:10C22000C96801F0010109B101200CE00649C968A3
:10C2300001F0100109B1032005E00349C96801F0CC
:10C24000040101B102207047002002400548006946
:10C2500000F0800020B1044802494860034848606B
:10C26000704700000020024023016745AB89EFCDF5
:10C2700000B50346012200BF00F00CF802465B1E29
:10C28000012A01D1002BF7D1012A00D10422104646
:10C2900000BD000000200A49C96C01F0010109B18C
:10C2A00001200CE00649C96C01F0100109B103201E
:10C2B00005E00349C96C01F0040101B10220704797
:10C2C00000200240064A02EB9011096800F01F03AB
:10C2D00001229A401143024B03EB90121160704708
:10C2E0000020024070B504460D4600262A4800880A
:10C2F000B0F5007F35D92948844219D24FF4702017
:10C30000FFF77AFF0646002E43D12548006940F02A
:10C3100001002349086125804FF47020FFF76CFF6E
:10C3200006461F48006920F001001D49086130E001
:10C330004FF47020FFF79CFF064656BB1848006D6F
:10C3400040F001001649086525804FF47020FFF782
:10C350008FFF06461248006D20F001001049086565
:10C3600017E04FF47020FFF747FF06468EB90C48E0
:10C37000006940F001000A49086125804FF47020EF
:10C38000FFF73AFF06460648006920F0010004491D
:10C390000861304670BD0000E0F7FF1FFFFF07088F
:10C3A0000020024030B5054636480088B0F5007FD1
:10C3B00048D9354885421ED24FF47020FFF71CFF44
:10C3C0000446002C5BD13148006940F002002F493F
:10C3D000086108464561006940F0400008614FF47B
:10C3E0007020FFF709FF04462848006920F002008A
:10C3F0002649086143E04FF47020FFF739FF0446F7
:10C40000002C3CD12148006D40F002001F49086516
:10C4100008464565C06900F0020008B1084645615C
:10C420001A48006D40F04000184908654FF470202C
:10C43000FFF71EFF04461548006D20F00200134967
:10C4400008651CE04FF47020FFF7D6FE0446B4B92F
:10C450000E48006940F002000C4908610846456139
:10C46000006940F0400008614FF47020FFF7C4FEFF
:10C4700004460648006920F002000449086120468D
:10C4800030BD0000E0F7FF1FFFFF0708002002405B
:10C4900041617047016170470AB1016100E041618B
:10C4A0007047F0B5044616460025002201F00F053E
:10C4B00001F0100747B1042E05D145F00305E76BE5
:10C4C0001F43E76300E0354300201EE0012787405B
:10C4D0001F40C7B122684FEA800C0F2707FA0CF7FC
:10C4E000BA43870005FA07F73A43282904D1012700
:10C4F00087401F40676105E0482903D10127874035
:10C500001F4027612260471CB8B20828DED30820EC
:10C5100022E0012787401F40E7B16268A0F10807C9
:10C520004FEA870C0F2707FA0CF7BA43A0F1080768
:10C53000BF0005FA07F73A43282904D101278740AD
:10C540001F40676105E0482903D1012787401F404C
:10C5500027616260471CB8B21028DAD3F0BD0246EA
:10C560009068084008B1012070470020FCE70000F7
:10C57000F0B50A46002300240021002500F0004603
:10C58000B6F1004F02D11D4EF16901E01B4E7168FA
:10C59000C0F3034583B200F44016B6F5401F08D13E
:10C5A00021F0E061154E766826F0E066134F7E605C
:10C5B00012E000F48016B6F5801F06D1032606FAB5
:10C5C00005F4A14341F0E06106E0460D360103FAAF
:10C5D00006F6B14341F0E06122B1460D360103FA9F
:10C5E00006F6314300F00046B6F1004F02D1034E8B
:10C5F000F16101E0014E7160F0BD000000000140FA
:10C6000010B5052202490348FBF753FE10BD000098
:10C61000E41D00200088030810B5074800210160D0
:10C620004160816040F232410448FBF7CAFD1420AA
:10C630000249C88010BD0000F82600200427002011
:10C6400010B586B006205C49C880142101A8FBF70C
:10C65000B8FD5A48007840B9012058490870584838
:10C660008860002088704871A3E054480078012851
:10C670007ED152484078012811D15248408840F478
:10C680009E40029001208DF80F008DF80E0001A849
:10C69000FFF790FA002049494870487114E0474874
:10C6A0008078012810D14748408840F49C4002908F
:10C6B00001208DF80F008DF80E0001A8FFF77AFA1F
:10C6C00000203E49887048713C48C07801283FD11D
:10C6D000002400BF0AE03C48005D012804D001208E
:10C6E0003A4981F8810403E0601CC4B2802CF2DB7B
:10C6F00000BF364890F8810460B940F28442334963
:10C700003348FBF745FD3249B1F8822491F88004A3
:10C7100000F0BEF82B48408840F498400290012079
:10C720008DF80F00294890F881148DF81010022020
:10C730008DF80E0001A8FFF73DFA0020234981F88B
:10C740008104FF2081F8800400201C49C87030E07B
:10C750001A48007901282CD11A48408840F49640A4
:10C76000029001208DF80F008DF80E0001A800E066
:10C7700007E0FFF71FFA0220104908700020087137
:10C7800017E00E48007802280AD10C48407918B901
:10C7900003200A4908700CE000200849087008E0EE
:10C7A00006480078032804D16420FFF7C1FBFDF799
:10C7B000CBFC06B010BD000038160020F826002083
:10C7C000400D0300FC050020EE210020EE1D00209E
:10C7D0007222002010B50523024A03490420FBF70A
:10C7E00075FD10BDE41D0020008803082DE9F0410F
:10C7F00007460E4614460025802E01DBBDE8F08179
:10C80000214890F88004FF280ED11F4880F88074DA
:10C81000802100F58060FBF7D4FC00201A49A1F8C4
:10C82000820481F8810408E0174890F88004B84237
:10C8300003D00120144981F88104F5000121134837
:10C84000815520781049485561780F4A681C115469
:10C85000A178A81C1154E178E81C11542179281DF5
:10C8600011546179681D1154A179A81D1154E17901
:10C87000E81D11541046B0F8820408301146A1F8A2
:10C88000820400BFBAE70000EE1D0020EE21002068
:10C890002DE9F04104460D4616464FF0006000EBCE
:10C8A0008427C6F34F032A4639460120FBF70EFDC5
:10C8B000BDE8F08110B50A4642F2107100B908E0F7
:10C8C000012802D140F6C41103E0022801D149F643
:10C8D00040410D4B1B685B1C0B4C236023461B68BF
:10C8E0008B4203D20023094C23800BE0064B1B68CC
:10C8F000B3EB410F03D20123044C238002E0002359
:10C90000014C236010BD000020000020F005002035
:10C9100010B54FF40041080303F0C6FF7820FFF77D
:10C92000E9FA03F04FFFFFF76BFEE420044988802B
:10C9300000200880FFF74EFF00F04EF8002010BDE9
:10C94000E41D002010B51420124908800846008814
:10C950001149098890FBF1F0104908800D480088C2
:10C9600000EE100AB8EE400ADFED0D0A80EE801AE4
:10C970000C4880ED001A0C4800680C4908604FF420
:10C98000B8710B48FBF71DFC084800880849A1F85E
:10C99000180110BD060000200A0000200800002039
:10C9A0006F12833A0C000020E8F7FF1F10000020F0
:10C9B0003816002010B500F04BF804F069F805486F
:10C9C000C08808B9FCF720FF02F0D8FF04F042F855
:10C9D00010BD0000FC050020FFF7B4FFFFF728FBA7
:10C9E000FFF7CEFBFFF702FBFFF7C8FAFDF768FE83
:10C9F00004F022F804F026F86420FFF799FAFDF716
:10CA000053FF0320FDF7B8FFFEF722F8FFF704FEFF
:10CA100004F05EFD03F0E4FD012204210948FFF764
:10CA20003BFD09488088022804D16420FFF780FA82
:10CA300002F0F6F9054804F01AFE01E004F0B6F938
:10CA4000FCE7000000080140FC050020002C01402C
:10CA500010B54548808920B100210120FFF72AFF49
:10CA60000BE04248006820B100210220FFF722FFBE
:10CA700003E000210846FFF71DFF3D480088401CE9
:10CA80003B490880084601883A480088401C81429A
:10CA900002DB0120364908803348008C401C3249B3
:10CAA00008840846008B012806D10846C06918B1E1
:10CAB0000846C069401EC8612F48B0F87A0020B10E
:10CAC0002D48C06F401C2C49C867FDF78DFC2B48D2
:10CAD000808820B129488088401E284988802848BD
:10CAE0000088401C2649088008460088B0F5FA6F87
:10CAF00039DB002008802048C088022812DB1E484D
:10CB0000C08804280EDC1C48D0F828011A49D1F846
:10CB10002411884206D21848D0F82801401C164932
:10CB2000C1F828011048C08858B10F48408C401CFB
:10CB30000D4948840846408C142805DB0020C88035
:10CB400002E000200849488440F202610D48FEF7E7
:10CB5000C7FA28B10C480088401C0B49088002E045
:10CB600000200949088010BDDC06002000000020DC
:10CB700004000020080000203816002004270020B0
:10CB800024000020006400401600002010B50220A0
:10CB90003849C8800120A1F878003748C06C43F6B6
:10CBA0009821884204D23448C06C401C3249C86481
:10CBB000304890ED372AF0EE421A90ED372AB0EE69
:10CBC000421A90ED3A2AF0EE420A90ED362AB0EE83
:10CBD000420AFDF749FC274880ED3A0A90ED3A0AEF
:10CBE000D0ED360AB4EE600AF1EE10FA02D1234815
:10CBF000234908601F48C08901281BD11D48008AAD
:10CC0000C0B900201B49C881012008820846D0ED28
:10CC1000360AB0F820016421484300EE100AB8EE4D
:10CC2000C00A80EE801A134880ED381A154814495E
:10CC3000086015E00F48008990B90E48D0ED360A1B
:10CC40001148808E6421484300EE100AB8EEC00AF5
:10CC500080EE801A074880ED381A0A4808490860B3
:10CC60000A48006828B100200249088108480449A0
:10CC7000086010BD381600206818002055E1000833
:10CC800028000020D5D20008FC050020000000206C
:10CC9000D1EA000810B52DED028B00249FEDAE0AFD
:10CCA000B0EE408A9FEDAC0AF0EE408A0720AB4917
:10CCB000C8800846C089012809D10020C881082001
:10CCC000A1F8F0000846008908B100200881A348B7
:10CCD000B0F8F000012804D10220A049A1F8F0002A
:10CCE0002BE19E48B0F8F000022838D19C48B0F8FB
:10CCF000480000EE100AB8EE400ADFED9A0A20EE76
:10CD0000200A964880ED3F0A9FED930A80ED400A85
:10CD1000954890ED0C0A9148D0ED050AB6EE001A40
:10CD200011EE200A8E48B0F84E0000EE900AF8EEA0
:10CD3000600A30EE600AB0EE408AB0EE480AFBF7B7
:10CD4000B5FB04468548806A044488484068201A38
:10CD50008249C1F8F4000320A1F8F000EDE07F481B
:10CD6000B0F8F0000328BBD07C48B0F8F0000428ED
:10CD700008D17A4800890128B2D105207749A1F865
:10CD8000F000DAE07548B0F8F000052870D174487A
:10CD9000B0F8480000EE100AB8EE400ADFED710A64
:10CDA00020EE200A6D4880ED3F0A6D48B0F8500033
:10CDB0004FF47A7148436949C1F8F8009FED660A5B
:10CDC000084680ED400A6648B0F94A0000EE100AB5
:10CDD000B8EEC00ADFED630A20EE208A0846D0F8DC
:10CDE0002401D0B15E48B0F94C0000EE100AB8EE54
:10CDF000C00ADFED5C0A60EE200A084690ED4A0AA0
:10CE0000B8EE400A60EE800A90ED490AB8EE400A9A
:10CE100080EE801AF0EE418A03E09FED4F0AF0EEBB
:10CE2000408A514890ED0C0A30EE080A30EE280A8C
:10CE3000B0EE408A4948D0ED050AB6EE001AB0EED1
:10CE4000480A11EE200AB0EE408AB0EE480AFBF71D
:10CE50002DFB04464148806A044444484068201A37
:10CE60003E49C1F8F4000620A1F8F00065E0FFE7B4
:10CE70003A48B0F8F00006285FD03848B0F8F00023
:10CE8000072810D13548D0F8F80038B13348D0F829
:10CE9000F800401E3149C1F8F8004EE008202F4943
:10CEA000A1F8F00049E02D48B0F8F00008281CD1A6
:10CEB0002B48B0F8480000EE100AB8EE400ADFED4B
:10CEC000290A20EE200A254880ED3F0A9FED220A1C
:10CED00080ED400A806A25494968401A1F49C1F817
:10CEE000F4000920A1F8F00027E01C48B0F8F00099
:10CEF000092822D01948B0F8F0000A281DD10020D6
:10CF00001649A1F8F000194800681949C1F8A800AD
:10CF1000D1F8A800FBF7E2FA1549C1F890000846DD
:10CF2000D0F89000002802DB0120488002E00220B7
:10CF30000F4948800F48104908601048006838B110
:10CF4000002006490881A1F8F0000A480A49086053
:10CF5000BDEC028B10BD0000000000003816002060
:10CF6000FC050020CDCCCC3D681800209C1500208D
:10CF7000A8170020D1EA00082800002000000020A7
:10CF800010B52DED028B00249FED710AB0EE408AA2
:10CF900008207049C8800846C089012809D10020AE
:10CFA000C8810520A1F804010846008908B10020C5
:10CFB00008816848B0F80401012804D102206549BD
:10CFC000A1F80401B5E06348B0F8040102283DD19E
:10CFD0006148B0F8480000EE100AB8EE400ADFEDF4
:10CFE0005F0A20EE200A5B4880ED440A5A48B0F8F8
:10CFF00054004FF47A7148435649C1F80C019FED33
:10D00000540A084680ED450A5348B0F8520000EE35
:10D01000100AB8EE400A0846D0ED050AB6EE001A2E
:10D02000B0EE408A01EE208AB0EE480AFBF73EFAE5
:10D0300004464848806A044449484068201A4549E3
:10D04000C1F808010320A1F8040172E04148B0F8DA
:10D05000040103286DD03F48B0F8040104281ED114
:10D060003C480089012810D13A48D0F80C0138B169
:10D070003848D0F80C01401E3649C1F80C0158E080
:10D0800005203449A1F8040153E03348B0F85400B6
:10D090004FF47A7148432F49C1F80C0149E02D48FB
:10D0A000B0F8040105281CD12B48B0F8480000EE68
:10D0B000100AB8EE400ADFED290A20EE200A2548C2
:10D0C00080ED440A9FED220A80ED450A806A2449DA
:10D0D0004968401A1F49C1F808010620A1F8040157
:10D0E00027E01C48B0F80401062822D01948B0F8FF
:10D0F000040107281DD108201649A1F80401184889
:10D1000000681849C1F8A800D1F8A800FBF7E6F9B3
:10D110001449C1F890000846D0F89000002802DBBE
:10D120000120488002E002200E4948800E480F4945
:10D1300008600F48006838B1002006490881A1F84E
:10D140000401094809490860BDEC028B10BD0000CC
:10D150000000000038160020FC050020CDCCCC3D9E
:10D160009C150020A8170020D1EA00082800002004
:10D170000000002006200649C8800648006828B143
:10D1800000200881088204480449086070470000B4
:10D190003816002000000020D1EA000828000020F6
:10D1A00010B505204349C8804348008A002856D05E
:10D1B0001E20414988610846FBF7F2F93E48006BA2
:10D1C0003E49C1F8A8003C48408920B13C4800884D
:10D1D000401C3B4908803848008920B13948008804
:10D1E000401C384908803448806A002839D03248C9
:10D1F000C06AA8B33048806A2F49C96A0844401001
:10D200002D4948620846808818B90846C088002819
:10D210004FD000202849088201204882B7EE000A3A
:10D22000294880ED0B0A2948294908602248406AAC
:10D230002049B1F9241008441E4908638862C86275
:10D24000002048631D49D1F8A800FBF747F91B49A6
:10D25000C1F8900000201A4908801A49088028E087
:10D26000FFE717480088012823DB164800880128BB
:10D270001FDB1148808810B90F48C088C8B1002052
:10D280000D49088201204882B7EE000A0E4880ED61
:10D290000B0A0E480E4908600849D1F8A800FBF7B0
:10D2A0001DF90649C1F8900000200549088005498C
:10D2B000088010BD38160020B0190020A8170020E3
:10D2C0002E0000202C00002014140020D1EA0008B9
:10D2D0002800002010B504202649C8800120A1F8AC
:10D2E0007800084690ED380AF0EE401A90ED380AC2
:10D2F000B0EE401A90ED3A0AF0EE400A9FED1E0A99
:10D30000FDF7B2F81B4880ED3A0AC089012817D111
:10D310001848008AA0B900201649C8810120088257
:10D320000846D0ED3A0AB0F820016421484300EEE7
:10D33000100AB8EEC00A80EE801A0E4880ED381A46
:10D340000C4890ED3A0AB5EEC00AF1EE10FA06D19B
:10D3500000200849088108820848094908600948EE
:10D36000006828B100200349088104480449086086
:10D3700010BD00003816002000000000D1EA0008AF
:10D38000280000200000002010B52DED028B9FED3D
:10D39000540AB0EE408A05205249C8800120A1F805
:10D3A00078000846B0F88800B1F88A10884213D097
:10D3B0004C48B0F88A004B49A1F888000846B0F8FC
:10D3C000880000EE900AF8EE600AB0EE600AFAF704
:10D3D00051FF444880ED360A4248D0F8240148B352
:10D3E0004148408D00EE100AB8EE400ADFED3F0ADA
:10D3F00020EE200AB0EE408AB7EE000A30EE480A6E
:10D40000B0EE408AB5EEC08AF1EE10FA13D035487E
:10D4100090ED4A0AB8EE400A60EE080A90ED490A1B
:10D42000B8EE401A80EE810AF7EE000A30EEC00A2C
:10D4300080ED3B0A04E0B7EE000A2A4880ED3B0A83
:10D44000284890ED362AD0ED3B2A22EE222AB0EE73
:10D45000420A90ED372AF0EE421A90ED372AB0EEEC
:10D46000421A90ED3A2AF0EE420AFCF7FDFF1D4801
:10D4700080ED3A0AC08901281BD11A48008AC0B938
:10D4800000201849C881012008820846D0ED3A0AD8
:10D49000B0F820016421484300EE100AB8EEC00A3B
:10D4A00080EE801A0F4880ED381A11481149086043
:10D4B00009E00C48008930B90A48B0F8880010B972
:10D4C0000D480C4908600D48006828B10020054946
:10D4D00008810B4807490860BDEC028B10BD0000B5
:10D4E0000000000038160020FC0500200AD7233C6D
:10D4F000D5D200082800002075D1000800000020C7
:10D50000D1EA0008A34890F8340140BBA148D0F804
:10D510004801A049D1F84411401A9E49C1F864015C
:10D520000846D0F86401002805DB0846B0F8380149
:10D53000A1F83A0107E09748B0F83801404200B23C
:10D540009449A1F83A0100209249A1F83C01C1F8A0
:10D550006C01C1F86801012081F8340119E18D489E
:10D5600090F8340101287DD18A48B0F93A010028A9
:10D5700037DD8848B0F93C010A308649B1F93A11E3
:10D58000884208DA8348B0F83C010A3000B2814989
:10D59000A1F83C010DE07F48B0F93C017D49B1F9AB
:10D5A0003A11884205DC7B48B0F83A017949A1F884
:10D5B0003C017848D0F868017649B1F93C1108443B
:10D5C0007449C1F86801D1F86401D1F8681100EB21
:10D5D000D072B1EB620F3BDB03206E4981F834015E
:10D5E00036E06C48B0F93C010A386A49B1F93A11A1
:10D5F000884208DD6748B0F83C010A3800B2654946
:10D60000A1F83C010DE06348B0F93C016149B1F972
:10D610003A11884205DD5F48B0F83A015D49A1F84A
:10D620003C015C48D0F868015A49B1F93C11084402
:10D630005849C1F86801D1F86401D1F8681100EBCC
:10D64000D072B1EB620F03DC0320524981F8340140
:10D650005048B0F93C014F49B1F93A1188420AD11A
:10D660004C4800E008E0D0F868014A49C1F86C0174
:10D67000022081F834018CE0464890F834010228F9
:10D680002FD14448D0F868014249B1F93C1108440F
:10D690004049C1F868010846D0F8640100280FDB52
:10D6A0000846D0F86401D1F86C11401A3949D1F814
:10D6B000681188426DDC0320364981F8340168E046
:10D6C0003448D0F864013349D1F86C11401A31491B
:10D6D000D1F8681188425CDB03202E4981F83401BF
:10D6E00057E02C4890F83401032833D12948B0F989
:10D6F0003A01002812DD2748B0F93C010A2808DD6C
:10D700002448B0F83C010A3800B22249A1F83C0193
:10D7100017E000201F49A1F83C0112E01D48B0F9B4
:10D720003C0110F10A0F08DA1A48B0F83C010A303F
:10D7300000B21849A1F83C0103E000201549A1F806
:10D740003C011448B0F83C0118BB0420114981F891
:10D7500034011EE00F48B0F848010E49B1F84411F9
:10D76000401A00B20B49A1F83C010846B0F93C014F
:10D770000A2803DD0A20A1F83C010AE00548B0F9B7
:10D780003C0110F10A0F04DA6FF009000149A1F819
:10D790003C0170473816002010B5A548808BA5497C
:10D7A0008883A348808C00EE100AB8EE400ADFEDB3
:10D7B000A20A20EE200A084680ED050A9C48408B0C
:10D7C00000EE100AB8EE400ADFED9C0A20EE200AB7
:10D7D000084680ED080A9648B0F9220000EE900A4B
:10D7E000F8EEE00A9FED941A60EE810AB0EE600A4E
:10D7F000FAF75CFE00B28F4988840846D0ED050A2E
:10D80000B0EE600AFAF752FE8A49C8649FED8C0AAE
:10D81000084680ED0E0A9FED8A0A80ED0F0A9FED03
:10D82000880A80ED110A80ED100A864800884FF4BE
:10D830007A714843C0EB001080007E49C1F8800037
:10D840007B48008DA1F888007948008C00EE100A12
:10D85000B8EE400ADFED7C0A20EE200AF6EE000A60
:10D8600020EE200A084680ED060AD0ED060A808BDD
:10D8700000EE100AB8EE400A20EE800ABCEEC00AA4
:10D88000084680ED140A90ED050A704880ED030A01
:10D890006748C08C00EE100AB8EE400ADFED660A59
:10D8A00020EE200A694880ED100AB2EE040A80EDED
:10D8B000110A00206549C864084690ED0B0AD0EDB6
:10D8C0000C0A30EE200A80ED070A90ED0B0A80ED7D
:10D8D000080A90ED0C0A80ED090A90ED030AD0EDDC
:10D8E000070A30EE600A80ED020A5948406859493B
:10D8F000C1F8A8005548D0ED020AB0EE600AFAF768
:10D90000D5FD54494862084690ED090AB8EE400A30
:10D91000F6EE000A20EE200ABCEEC00A80ED0B0AEB
:10D9200090ED090AB8EE400AF6EE000A20EE200A51
:10D93000BCEEC00A80ED0A0A3E48C06CC1F8AC00DB
:10D940003C48006DC8660846406A08643F4890ED50
:10D950000B0AD0ED100A30EE200AD0ED110A30EE9D
:10D96000200A80ED080A90ED0C0AD0ED100A30EE86
:10D97000200AD0ED110A30EE200A80ED090AD0ED20
:10D98000080AB0EE600AFAF791FD324908662F489E
:10D99000D0ED090AB0EE600AFAF788FD2D49C86596
:10D9A000084690ED180AB8EE400AD0ED2B0AF8EEC2
:10D9B000600AB6EE001A11EE200ABCEEC00A80ED35
:10D9C0000D0A90ED170AB8EE400AD0ED2B0AF8EEDA
:10D9D000600AB6EE001A11EE200ABCEEC00A80ED15
:10D9E0000C0A406B48640846006B8864084690ED5A
:10D9F0001B0AB8EE400AFEEE000A20EE200ABDEE39
:10DA0000C00A80ED050A90ED1B0AB8EE400AF6EE5A
:10DA1000000A20EE200ABDEEC00A80ED060AC06AA8
:10DA20004042C1F8A0000846806AC1F8A40010BDB9
:10DA3000FC05002038160020CDCCCC3D0AD7233C75
:10DA400000000000060000206F12833A68180020D2
:10DA50009C150020A817002010B5002300240C20DE
:10DA6000FE49C880FE49C86800EBD0714C10FD48E3
:10DA7000406DFA49C1F858010846D0F85801D1F86C
:10DA80005C11431AA34206DDF548C068181AF34931
:10DA9000C1F860010CE06042834206DAF048C068D9
:10DAA0001844EE49C1F8600102E0EC48C0F860316A
:10DAB000EA48D0F85801E949C1F85C01084690F8F5
:10DAC000330148B90846D0F84401D1F86011084440
:10DAD000E249C1F844010AE0E048D0F84401DF49D6
