:020000040800F2
:10000000180E002045010008290C0008090400080A
:10001000250C0008F1010008A50D000800000000F3
:100020000000000000000000000000002D0C00088F
:10003000F5010008000000002B0C00082F0C000840
:100040005F0100085F0100085F0100085F01000810
:100050005F0100085F0100085F0100085F01000800
:100060005F0100085F0100085F0100085F010008F0
:100070005F0100085F0100085F0100085F010008E0
:100080005F0100085F0100085F0100085F010008D0
:10009000510D00085F0100085F0100085F010008C2
:1000A0005F010008A10C00085F0100085F01000863
:1000B0005F0100085F0100085F0100085F010008A0
:1000C0005F0100085F0100085F0100085F01000890
:1000D0005F010008C10C00085F0100085F01000813
:1000E0005F0100085F0100085F0100085F01000870
:1000F0005F0100085F0100085F0100085F01000860
:100100005F0100085F0100085F0100085F0100084F
:100110005F0100085F0100085F0100085F0100083F
:100120005F0100085F0100085F0100085F0100082F
:10013000DFF80CD000F04AF8004800471D3B0008EB
:10014000180E00200648804706480047FEE7FEE7F5
:10015000FEE7FEE7FEE7FEE7FEE7FEE7FEE7FEE777
:10016000310C00083101000840EA01039B0703D06D
:1001700009E008C9121F08C0042AFAD203E011F8E6
:10018000013B00F8013B521EF9D27047D2B201E0A8
:1001900000F8012B491EFBD270470022F6E710B58C
:1001A00013460A4604461946FFF7F0FF204610BDE5
:1001B00030B504460020034600E05B1C934203D2A6
:1001C000E05CCD5C401BF8D030BD0000064C074D14
:1001D00006E0E06840F0010394E807009847103417
:1001E000AC42F6D3FFF7A8FF384D0008584D000881
:1001F00000BFFEE7704700002DE9FC5F83460F4615
:1002000091469A46002001908046009000260025E5
:100210000024BBF1000F73D14FEA4A00C11700EB75
:100220001171C1F30F1101914FEA4A00C11700EBA0
:1002300011710911A0EB01111FFA81F800BF2BE029
:1002400005EB09004FF6FF7101EA00100090084627
:1002500000EA051610226B48009900F011FA10B957
:100260000020BDE8FC9F002412E0664A12F814202A
:100270006100491C634B595C42EA0121304606EBA0
:10028000D072521007EB420222F81410601C84B2A4
:10029000082CEADB681C85B201988542D0DBB8F1F6
:1002A000000F2BD005EB09004FF6FF7101EA00109B
:1002B0000090084600EA051642465248009900F0B0
:1002C000DFF908B90020CCE7002412E04D4A12F80B
:1002D00014206100491C4B4B595C42EA0121304615
:1002E00006EBD072521007EB420222F81410601C89
:1002F00084B208EBD871B4EB610FE7DB7FE0FFE776
:10030000BBF1010F7BD14FEA4A00C11700EB11711D
:10031000C1F30F1101914FEA4A00C11700EB1171AF
:100320000911A0EB01111FFA81F800252FE005EB60
:1003300009004FF6FF7101EA00100090084600EA3C
:100340000516002417E0304606EBD071491007EB84
:10035000410111F814102B4B03F8141006EBD07167
:10036000491007EB410131F814100A0A6100491CD9
:100370005A54601C84B2082CE5DB102221480099F5
:1003800000F0E8F908B900206BE7681C85B2019815
:100390008542CCDBB8F1000F31D005EB09004FF6F8
:1003A000FF7101EA00100090084600EA05160024DB
:1003B00017E0304606EBD071491007EB410111F808
:1003C0001410104B03F8141006EBD071491007EB12
:1003D000410131F814100A0A6100491C5A54601C8A
:1003E00084B208EBD871B4EB610FE2DB42460548FA
:1003F000009900F0AFF908B9002032E7FFE70120CB
:100400002FE700000806002000BFFEE710B501221C
:1004100080210B4803F0A2FA022002F0ADFE012277
:100420004021074803F09AFA022002F0A5FE0022BC
:100430004021034803F092FA022002F09DFE10BD15
:10044000000C014010B500F0E1F9022002F094FE2A
:10045000012240210E4803F081FA022002F08CFEB6
:1004600080210B4803F0DDFA012800D100E00020D4
:100470000446022002F080FE00224021044803F0DE
:100480006DFA022002F078FE00F0CEF9204610BD91
:10049000000C014070B50825002400F0B7F90220D7
:1004A00002F06AFE1CE06006040E0022402115489E
:1004B00003F054FA022002F05FFE012240211148AD
:1004C00003F04CFA022002F057FE80210D4803F0A1
:1004D000A8FA012800D100E0002008B144F001048E
:1004E000281EA5F10101CDB2DDD100224021054831
:1004F00003F034FA022002F03FFE00F095F92046A6
:1005000070BD0000000C014070B50446082500F0E5
:100510008BF9022002F030FE22E0002240211A482E
:1005200003F01CFA022002F027FE04F0800028B13C
:1005300001228021144803F011FA04E000228021F6
:10054000114803F00BFA6006040E022002F014FEBC
:10055000012240210C4803F001FA022002F00CFEB7
:10056000281EA5F10101CDB2D7D1002240210648B5
:1005700003F0F4F9022002F0FFFD0022802102487E
:1005800003F0ECF970BD0000000C014010B5002232
:100590004021124803F0E2F9022002F0EDFD0122B1
:1005A00080210E4803F0DAF9022002F0E5FD012275
:1005B00040210A4803F0D2F9022002F0DDFD0022BA
:1005C0008021064803F0CAF9022002F0D5FD00227E
:1005D0004021024803F0C2F910BD0000000C0140A8
:1005E00010B5022002F0C8FD00224021154803F09A
:1005F000B5F9022002F0C0FD00228021114803F06D
:10060000ADF9022002F0B8FD012240210D4803F0AF
:10061000A5F9022002F0B0FD01228021094803F073
:100620009DF9022002F0A8FD00224021054803F0B8
:1006300095F9022002F0A0FD00228021014803F07C
:100640008DF910BD000C014010B5002280210B482F
:1006500003F084F9022002F08FFD012240210748B7
:1006600003F07CF9022002F087FD002240210348BC
:1006700003F074F9022002F07FFD10BD000C014070
:100680002DE9F04706460C4615460027B8464FF0C0
:1006900064092046E11704EB1161C1F307272046E6
:1006A000E11704EB11610912A4EB01211FFA81F893
:1006B0007806070E07F00F0747F0A00024490870DE
:1006C000FFF764FF22480078FFF71EFFFFF7BAFE2E
:1006D00020B1FFF785FF0020BDE8F08708F0FF009C
:1006E000FFF712FFFFF7AEFE18B1FFF779FF00200A
:1006F000F2E7FFF74BFF1649097841F00100FFF7D9
:1007000003FFFFF79FFE18B1FFF76AFF0020E3E742
:100710000CE0FFF7BFFE3070012D02D1FFF776FE2F
:1007200001E0FFF791FF761C681E85B2002DF0D125
:10073000FFF756FF02E0012002F01EFDB9F10000B4
:10074000A9F101011FFA81F9F5D10120C4E70000E8
:10075000200000202DE9F04705460C4617460026EC
:10076000B0464FF064092046E11704EB1161C1F374
:1007700007262046E11704EB11610912A4EB0121C1
:100780001FFA81F87006060E06F00F0646F0A0006C
:100790001D490870FFF7FAFE1B480078FFF7B4FE0A
:1007A000FFF750FE20B1FFF71BFF0020BDE8F087E8
:1007B00008F0FF00FFF7A8FEFFF744FE18B1FFF7AF
:1007C0000FFF0020F2E70AE02878FFF79DFEFFF711
:1007D00039FE18B1FFF704FF0020E7E76D1C381E53
:1007E000A7F101018FB2EFD1FFF7FAFE02E032204C
:1007F00002F0C2FCB9F10000A9F101011FFA81F970
:10080000F5D10120D2E700002000002010B540F211
:10081000036003F099FB802303224821014803F081
:10082000A2F810BD000C014010B540F2036003F0C7
:100830008BFB802303221021014803F094F810BDA4
:10084000000C014070B504460D461646022C00DB34
:1008500070BD6A48405D40EAC61069490855002CE1
:1008600064D10122D103674803F078F801225103D3
:10087000644803F073F86248005D00F0010080F006
:1008800001020121604803F069F85D48005DC0F392
:10089000400080F0010202215B4803F05FF85848F5
:1008A000005DC0F3800080F001020421564803F08F
:1008B00055F85348005DC0F3C00080F001020821E4
:1008C000514803F04BF84E48005DC0F3001080F033
:1008D000010210214C4803F041F84948005DC0F383
:1008E000401080F001022021474803F037F84448C7
:1008F000005DC0F3801080F001024021424803F007
:100900002DF83F48005D012181EAD01280213E4848
:1009100003F024F8012251033A4803F01FF80022A3
:100920004FF40041374803F019F864E0012C62D11C
:100930000122D103334803F011F801225103314859
:1009400003F00CF82E48005D00F0010080F0010279
:1009500001212D4803F002F82948005DC0F3400052
:1009600080F001020221284802F0F8FF2448005DCF
:10097000C0F3800080F001020421234802F0EEFF62
:100980001F48005DC0F3C00080F0010208211E482E
:1009900002F0E4FF1A48005DC0F3001080F001028D
:1009A0001021194802F0DAFF1548005DC0F340102D
:1009B00080F001022021144802F0D0FF1048005DB1
:1009C000C0F3801080F0010240210F4802F0C6FF02
:1009D0000B48005D012181EAD01280210A4802F013
:1009E000BDFF0122D103074802F0B8FF00226103D6
:1009F000044802F0B3FF00BF2AE70000284D0008BA
:100A00005C040020000C01400008014010B500F01B
:100A100001F810BD1CB50020019000903448C0685A
:100A2000401C3349C8600846C068B0F5FA6F04D965
:100A30000846C068A0F5FA60C8602D48807A401C5E
:100A40002B4988720846807A022801D100208872DA
:100A50002748817A801D405C98B12548C068B0F570
:100A60007A7F08D22248817A801C405C2049897AAA
:100A700001AA50540DE00A201D49897A01AA505458
:100A800007E01B48817A801C405C1949897A01AAD9
:100A900050541748817A0830405C98B11448C068B7
:100AA000B0F57A7F08D21248817A001D405C104967
:100AB000897A0DF801000DE000200D49897A0DF8C2
:100AC000010007E00A48817A001D405C0849897AE4
:100AD0000DF80100064B9B7A1DF80320044B9B7A0E
:100AE00001ACE15C024B987AFFF7ACFE1CBD000044
:100AF0005C04002010B540F2036003F025FA4FF4C7
:100B0000004303221021324802F02DFF40F203601F
:100B100003F01AFA4FF40053032210212C4802F07C
:100B200022FF40F2026003F00FFA0123032210219A
:100B3000284802F018FF40F2026003F005FA022391
:100B400003221021234802F00EFF40F2026003F05E
:100B5000FBF90423032210211E4802F004FF40F297
:100B6000026003F0F1F9082303221021194802F072
:100B7000FAFE40F2026003F0E7F91023032219465F
:100B8000144802F0F0FE40F2026003F0DDF9202389
:100B9000032210210F4802F0E6FE40F2026003F04B
:100BA000D3F94023032210210A4802F0DCFE40F270
:100BB000026003F0C9F9802303221021054802F0E6
:100BC000D2FE05480021016041608160C16010BD16
:100BD000000C0140000801405C040020F0B5044610
:100BE0000D460020234618E00A26B3FBF6F706FB65
:100BF0001731B3FBF6F310B9094E315409E0012D5A
:100C000005D121B91BB90A27054E375401E0044E1E
:100C10003154561EF2B2461CF0B2002AE4D1F0BDA7
:100C20005E04002000BFFEE77047704770477047C2
:100C300008B51848006840F4700016490860164866
:100C4000006840F00100144908600846406840F020
:100C5000800048600020009002E00098401C009056
:100C600044F6206100988842F7D300200A49486082
:100C7000C8620846006809490840074908604FF4FF
:100C80001F0088600846006820F48020086003F098
:100C90003FFC08BD88ED00E000100240FFFFF6FEBB
:100CA00010B50121054803F0ACFC28B1012103482F
:100CB00003F0A4FC02F042FF10BD0000002C014034
:100CC00010B51E491E4803F06FFD38B11C4803F0F3
:100CD000EDFCC4B2204602F0B5FB2DE019491848DE
:100CE00003F062FD40B31749154803F050FD164864
:100CF000408908B31448C089401C1349C88108467C
:100D0000C0898989884207DA0F48C289A830815C86
:100D10000B4803F0D0FC0FE00B48006C401C0A4964
:100D200008640020488108814880088000224FF430
:100D30008071064802F012FE10BD00000503050098
:100D4000003801400603060050030020000801405F
:100D500010B58AB0002405AA0021114801F0D2FD87
:100D600005980090069801909DF81C008DF80800E9
:100D70009DF81D008DF809009DF81E008DF80A00F1
:100D800000BF06E00DF11F00015D14380155601C25
:100D9000C4B2082CF6DB684601F0CEFE0AB010BDE6
:100DA0000064004000BFFEE702E008C8121F08C14F
:100DB000002AFAD170477047002001E001C1121FDC
:100DC000002AFBD1704706283AD2DFE800F0030C76
:100DD000141D262F00220A7004224A7003228A70F2
:100DE00006228A8035E000220A7007224A70052216
:100DF0008A708A802DE000220A7004224A70032241
:100E00008A700C228A8024E000220A7004224A7030
:100E100003228A7018228A801BE000220A700422B2
:100E20004A7003228A703C228A8012E000220A70F3
:100E300004224A7003228A704FF416728A8008E0F6
:100E400000220A7005224A7004228A7006228A80D3
:100E500000BF00BF7047000070B5044600260025A3
:100E6000A64890F84700012804DBA44890F8470002
:100E70000C2800DD70BDA14890F8475090F848005C
:100E8000A8280ED105F584409D49C1F890000221A3
:100E90009B4880F89710012180F896108C3000F064
:100EA000EBFF964890F8480068280ED105F584407D
:100EB0009349C1F890000321914880F897100121CF
:100EC00080F896108C3000F0D7FF8C4890F84800DE
:100ED00079280ED105F584408949C1F89000042194
:100EE000874880F89710012180F896108C3000F028
:100EF000C3FF824890F848008A280DD105F5844048
:100F00007F49C1F8900001217D4880F8971080F852
:100F100096108C3000F0B0FF784890F848009B287D
:100F20000ED105F584407649C1F89000002174483F
:100F300080F89710012180F896108C3000F09CFF0B
:100F4000681EC4B25C206D4981F8A800C0216B48BE
:100F500080F8A91090F8201080F8AA1090F8471097
:100F600080F8AB10C4EBC400664911F82000000201
:100F7000C1B2624880F8AC10C4EBC400614911F8FA
:100F800020105E4880F8AD10002180F8AE1080F887
:100F9000AF1080F8B01080F8B110C4EBC40059490C
:100FA00001EB8000017E554880F8B210C4EBC4000C
:100FB000544901EB8000417E504880F8B310C4EBE7
:100FC000C400504901EB80008089010A4B4880F839
:100FD000B410C4EBC4004B4901EB8000017B4748CF
:100FE00080F8B510C4EBC400464901EB8000008ACC
:100FF0000112424880F8B610C4EBC400414901EB2D
:101000008000017C3D4880F8B710C4EBC4003D4926
:1010100001EB8000817E394880F8B810C4EBC40031
:10102000384901EB8000C17E344880F8B910C4EB28
:10103000C400344901EB8000817C304880F8BA104C
:10104000C4EBC4002F4901EB8000017D2B4880F8E0
:10105000BB10C4EBC4002B4901EB8000C08A011215
:10106000264880F8BC10C4EBC400264901EB800080
:10107000817D224880F8BD10002180F8BE1080F8E4
:10108000BF1080F8C01080F8C11080F8C21080F83E
:10109000C31080F8C41080F8C51080F8C61080F81E
:1010A000C71080F8C81080F8C91080F8CA1080F8FE
:1010B000CB1080F8CC1080F8CD1080F8CE1080F8DE
:1010C000CF1080F8D01080F8D11080F8D21080F8BE
:1010D000D3102C21A83001F0D9FFC6B23112074835
:1010E00080F8D41080F8D5600120044948812E2072
:1010F00088810520488200BFBCE600005003002024
:1011000000010020B401002030B504460025002C69
:101110007DD18F4890F847008E4988808C4890F8A0
:101120004800C8808A4890F84A1090F8490001EBBE
:1011300000208849C881864890F84C1090F84B00F0
:1011400001EB002083490881814890F84E1090F807
:101150004D0001EB00207F4948817D4890F85010F8
:1011600090F84F0001EB00207A498881784890F888
:10117000521090F8510001EB002076490882744823
:1011800090F8541090F8530001EB002000B2714920
:1011900048826F4890F8561090F8550001EB0020F7
:1011A0006C4988826A4890F85700C882684890F86D
:1011B00058000887664890F85A1090F8590001EBDB
:1011C000002064490883624890F85B0048836048C7
:1011D00090F85C0088835E4890F85D00C8835C48A6
:1011E00090F85E0040B24887594890F8601090F837
:1011F0005F0001EB002057490884554890F86100D2
:101200004884534890F862008884514800E09DE08B
:1012100090F8641090F8630001EB00204D49C884F9
:101220004B4890F865000885494890F86600488565
:10123000474890F8681090F8670001EB0020454996
:101240008885434890F86900C885414890F86A004D
:1012500008863F4890F86C1090F86B0001EB002076
:101260003C4948863A4890F86D008886384890F89E
:101270006E00C886364890F86F00A1F844003448E4
:1012800090F87000A1F84200314890F87100C887CA
:101290002F4890F87200A1F840002D4890F8741083
:1012A00090F8730001EB00202A49A1F84800284873
:1012B00090F87500A1F84A00254890F8760040B2F1
:1012C000888700202249488301208883C820C8835A
:1012D0005C2081F8A800D0211D4880F8A91090F862
:1012E000201080F8AA10002180F8AB1080F8AC1014
:1012F00080F8AD1080F8AE1080F8AF1080F8B01014
:1013000080F8B11080F8B21080F8B31080F8B410F3
:1013100080F8B51080F8B61080F8B71080F8B810D3
:1013200080F8B91080F8BA101321A83001F0AEFE91
:1013300005462912064880F8BB1080F8BC500120F1
:1013400003494881152088810520488230BD00006E
:10135000500300204000002030B5044600250C2C2E
:1013600000DB30BDB04890F8310038B90120AE49FB
:1013700081F83100601C81F8320052E1AA4890F8EF
:1013800031000328F9D10020A74981F8310088866F
:1013900081F832005C2081F8A80004F1E000C1B2BD
:1013A000A14880F8A91090F8201080F8AA109F4852
:1013B00001799D4880F8AB109C4881799A4880F863
:1013C000AC109A48C0890112974880F8AD10974830
:1013D000817B954880F8AE109448008901129248AC
:1013E00080F8AF109148017A8F4880F8B0108F488C
:1013F000408901128C4880F8B1108C48817A8A4863
:1014000080F8B210894880890112874880F8B310AB
:101410008648017B844880F8B4108448008A011211
:10142000814880F8B5108148017C7F4880F8B6106B
:101430007E48408A010A7C4880F8B7107B48817C4E
:10144000794880F8B8107948808A0112764880F887
:10145000B9107648017D744880F8BA107348817DD0
:10146000714880F8BB10714890F838106E4880F8C9
:10147000BC106E48008B01126B4880F8BD106B48A1
:10148000017E694880F8BE106848817E664880F811
:10149000BF106648017F644880F8C0106348817FB0
:1014A000614880F8C110614890F83A105E4880F8B1
:1014B000C2105E48008C01125B4880F8C3105B4884
:1014C00090F82010584880F8C410584890F822101E
:1014D000554880F8C510554890F82410524880F8B7
:1014E000C6105248C08C01124F4880F8C7104F48B0
:1014F00090F826104C4880F8C8104C4890F82810F6
:10150000494880F8C910494890F82A10464880F8A0
:10151000CA104648808D0112434880F8CB104348DA
:1015200090F82C10404880F8CC10404890F82E10CD
:101530003D4880F8CD103D4890F830103A4880F88A
:10154000CE103A48408E0112374880F8CF10374805
:1015500090F83210344880F8D010344890F83410A5
:10156000314880F8D110314890F836102E4880F874
:10157000D2102E4890F844102B4880F8D3102B48F6
:1015800090F84210284880F8D410284890F83E106F
:10159000254880F8D510254890F84010224880F85A
:1015A000D6102248B0F8480001121F4880F8D71022
:1015B0001E4890F848101C4880F8D8101B4890F836
:1015C0004A10194880F8D910184890F83C1016486D
:1015D00080F8DA10002180F8DB1080F8DC1080F849
:1015E000DD1080F8DE1080F8DF1080F8E01080F861
:1015F000E11080F8E21080F8E31080F8E4103D215B
:10160000A83001F043FD05462912074880F8E5108F
:1016100080F8E6500120044948813F208881052058
:10162000488200BF9DE60000500300200403002014
:1016300070B5054600240026002D7CD1FE4890F8A8
:101640004700002837D1FC4890F82800002832D104
:1016500040F6C410F8494885012081F8280000BFF1
:101660000EE00021F54840F826103030815500206A
:10167000F2494C3981F84A0081F84B00701CC6B21F
:101680000C2EEEDB0021ED484C38C0F8901080F8AD
:10169000971080F8981080F8991080F89A1001211E
:1016A00080F89B10002180F89C10062180F896108D
:1016B0008C3000F0E1FB5C20DF4981F8A800F021CC
:1016C000DD4880F8A91090F8201080F8AA100021B9
:1016D00080F8AB10D9484C38C06C010ED64880F861
:1016E000AC10D6484C38C06C010CD34880F8AD1013
:1016F000D2484C38B0F84C00010ACF4880F8AE1000
:10170000CE484C3890F84C10CB4880F8AF10CB48FE
:101710004C3890F87C10C84880F8B010C7484C3856
:10172000006D010EC44880F8B110C4484C38006DFB
:10173000010CC14800E0BEE180F8B210BF484C384F
:10174000B0F85000010ABC4880F8B310BB484C38D0
:1017500090F85010B84880F8B410B8484C3890F859
:101760007D10B54880F8B510B4484C38406D010E76
:10177000B14880F8B610B1484C38406D010CAE4805
:1017800080F8B710AD484C38B0F85400010AAA48A8
:1017900080F8B810A9484C3890F85410A64880F842
:1017A000B910A6484C3890F87E10A34880F8BA10BB
:1017B000A2484C38806D010E9F4880F8BB109F48AE
:1017C0004C38806D010C9C4880F8BC109B484C380C
:1017D000B0F85800010A984880F8BD1097484C3876
:1017E00090F85810944880F8BE1094484C3890F8FF
:1017F0007F10914880F8BF1090484C38C06D010EA2
:101800008D4880F8C0108D484C38C06D010C8A4856
:1018100080F8C11089484C38B0F85C00010A86484D
:1018200080F8C21085484C3890F85C10824880F8E7
:10183000C31082484C3890F880107F4880F8C4105C
:101840007E484C38006E010E7B4880F8C5107B48FE
:101850004C38006E010C784880F8C61077484C3838
:10186000B0F86000010A744880F8C71073484C381B
:1018700090F86010704880F8C81070484C3890F8A4
:1018800081106D4880F8C9106C484C38406E010ECC
:10189000694880F8CA1069484C38406E010C6648A7
:1018A00080F8CB1065484C38B0F86400010A6248F3
:1018B00080F8CC1061484C3890F864105E4880F88D
:1018C000CD105E484C3890F882105B4880F8CE10FE
:1018D0005A484C38806E010E574880F8CF10574850
:1018E0004C38806E010C544880F8D01053484C3866
:1018F000B0F86800010A504880F8D1104F484C38C1
:1019000090F868104C4880F8D2104C484C3890F849
:101910008310494880F8D31048484C38C06E010EF7
:10192000454880F8D41045484C38C06E010C4248F8
:1019300080F8D51041484C38B0F86C00010A3E4898
:1019400080F8D6103D484C3890F86C103A4880F832
:10195000D7103A484C3890F88410374880F8D8109F
:1019600036484C38006F010E334880F8D9103348A0
:101970004C38006F010C304880F8DA102F484C3892
:10198000B0F87000010A2C4880F8DB102B484C3866
:1019900090F87010284880F8DC1028484C3890F8EF
:1019A0008510254880F8DD1024484C38406F010E22
:1019B000214880F8DE1021484C38406F010C1E4849
:1019C00080F8DF101D484C38B0F87400010A1A483E
:1019D00080F8E01019484C3890F87410164880F8D8
:1019E000E11016484C3890F88610134880F8E21041
:1019F00012484C38806F010E0F4880F8E3100F48F2
:101A00004C38806F010C0C4880F8E4100B484C38BF
:101A1000B0F87800010A084880F8E51007484C380B
:101A200090F87810044880F8E61004484C3890F894
:101A30008710014804E00000500300204C01002002
:101A400080F8E710002180F8E81080F8E91080F8AD
:101A5000EA1080F8EB1080F8EC1080F8ED1080F8B8
:101A6000EE1080F8EF1080F8F01080F8F11080F898
:101A7000F21080F8F31080F8F41080F8F51080F878
:101A8000F61080F8F71080F8F81090F8281080F819
:101A9000F9105221A83001F0F9FA04462112C04889
:101AA00080F8FA1080F8FB400120BD49488154209D
:101AB000888105204882012D7ED1B94890F84700E1
:101AC0000106B74890F8480001EB0041B44890F88F
:101AD000490001EB0021B24890F84A000844B0499F
:101AE000C8620021AF48C0F89010AD4890F84A1085
:101AF000AC4880F89710AA4890F84910A94880F897
:101B00009810A74890F84810A64880F89910A44863
:101B100090F84710A34880F89A10022180F89B1093
:101B2000002180F89C10062180F896108C3000F07F
:101B3000A3F95C209A4981F8A800F121984880F81F
:101B4000A91090F8201080F8AA1090F8471080F89B
:101B5000AB1090F8481080F8AC1090F8491080F85D
:101B6000AD1090F84A1080F8AE10002180F8AF1048
:101B700080F8B01080F8B11080F8B21080F8B3107F
:101B800080F8B41080F8B51080F8B61080F8B7105F
:101B900080F8B81080F8B91080F8BA101321A83076
:101BA00001F074FA044621127D4880F8BB1080F8D9
:101BB000BC4001207A4900E004E04881152088817A
:101BC00005204882022D7DD1754890F84700010616
:101BD000734890F8480001EB0041714890F84900C3
:101BE00001EB00216E4890F84A0008446C49C86235
:101BF000084690F84B0081F8300000216948C0F891
:101C00009010674890F84A10664880F8971064482A
:101C100090F84910634880F89810614890F848108F
:101C2000604880F899105E4890F847105D4880F849
:101C30009A10032180F89B10594890F830105948A9
:101C400080F89C10062180F896108C3000F014F972
:101C50005C20534981F8A800F221514880F8A9106E
:101C600090F8201080F8AA1090F8471080F8AB1078
:101C700090F8481080F8AC1090F8491080F8AD103A
:101C800090F84A1080F8AE1090F8301080F8AF103D
:101C9000002180F8B01080F8B11080F8B21080F800
:101CA000B31080F8B41080F8B51080F8B61080F842
:101CB000B71080F8B81080F8B91080F8BA10132166
:101CC000A83000E00FE001F0E1F9044621123448A9
:101CD00080F8BB1080F8BC400120314948811520B4
:101CE000888105204882022D58D100212D48C0F856
:101CF0009010FF2180F8971080F8981080F89910C4
:101D000080F89A10042180F89B10002180F89C1024
:101D1000062180F896108C3000F0AEF85C20204947
:101D200081F8A800F3211E4880F8A91090F820102F
:101D300080F8AA10FF2180F8AB1080F8AC1080F872
:101D4000AD1080F8AE10002180F8AF1080F8B01010
:101D500080F8B11080F8B21080F8B31080F8B41099
:101D600080F8B51080F8B61080F8B71080F8B81079
:101D700080F8B91080F8BA101321A83001F086F964
:101D800004462112064880F8BB1080F8BC400120B0
:101D900003494881152088810520488270BD0000D4
:101DA000500300200001002010B500244C212248DF
:101DB000FEF7F3F94C212148FEF7EFF94FF441709B
:101DC0001D49088002211C4802F0BAFA04467CB181
:101DD00040F203301849088001204880084602F08C
:101DE0005BFA2621144802F0C5FA0446042010BD0F
:101DF0001148008840F2033188420DD008460E4950
:101E00000880084602F048FA26210B4802F0B2FA90
:101E100004464CB10420EAE72621074802F090FA74
:101E20000446054802F02CF94C2203490348FEF70A
:101E30009BF90120DBE70000400000208C0000201F
:101E400010B500240A4802F01BF94C220949084841
:101E5000FEF7AEF948B12621054802F08BFA044698
:101E60004C2203490348FEF77FF9204610BD0000CD
:101E7000400000208C00002070B5044600250CB9FD
:101E8000012070BD064801F083FF05460DB9012011
:101E9000F7E7142221462846FEF766F90020F0E70E
:101EA0006C04002038B500200090012469460648E3
:101EB00001F083FF0446012C01D0009808B9009876
:101EC00038BD0098FCE700006C04002070B586B0B7
:101ED00004460025206801906068029004208DF877
:101EE0000C0000208DF80D00A07A8DF80E0000BFC8
:101EF00007E004F10B00415D0DF10F004155681C36
:101F000085B2082DF5DB01A9034800F06DFD0646FA
:101F1000002006B070BD0000006400402DE9F047CD
:101F2000002700250024A046A1460026FB48007893
:101F3000401CFA49087008460078052801DABDE817
:101F4000F0870020F5490870F548007850B9002066
:101F5000F3490870C8700871012081F888000320D7
:101F6000087051E2EE480078012810D1EC48408911
:101F700028B1EB484089401EE949488144E2E848DD
:101F80000079401CE6490871032008703CE2E448EF
:101F9000007802281DD1E248408920B1E0484089FC
:101FA000401EDF494881DE48408910B90520DC49E0
:101FB0000870DB48007A012803D10520D849087051
:101FC00022E2D748007A0228CBD10620D4490870F3
:101FD0001AE2D348007803287ED1D148C1780C306A
:101FE000405C002879D04120CD4988700520C88008
:101FF0000020087208460079C988884203D1012070
:10200000C749487202E00020C5494872C448C078F8
:10201000401CC0B2C249487007460846857804791A
:10202000200400EB052049780144BD48C0F8901019
:1020300074BBBC480179BA4880F89710B9488179D7
:10204000B74880F89810B748817BB54880F8991058
:10205000B448C0890112B24880F89A10B148017A98
:10206000AF4880F89B10AF4800890112AC4880F857
:102070009C10AC48817AAA4880F89D10A9484089F4
:102080000112A74880F89E10082180F896102FE1D1
:10209000012C32D1A348017BA14880F89710A148B8
:1020A000808901129E4880F898109E48017C9C48C7
:1020B00080F899109B48008A0112994880F89A107C
:1020C0009848817C964880F89B109648408A010A7F
:1020D000934880F89C1001E00EE1E2E09148017D18
:1020E0008F4880F89D108F48808A01128C4880F8B4
:1020F0009E10082180F89610FAE0022C2ED1894813
:10210000817D874880F89710864890F83810844879
:1021100080F898108348017E814880F899108148A2
:10212000008B01127E4880F89A107E48817E7C48A0
:1021300080F89B107B48017F794880F89C10794893
:10214000817F774880F89D10764890F83A1074485F
:1021500080F89E10082180F89610C9E0032C33D136
:10216000704890F820106E4880F897106D48008CE9
:1021700001126B4880F898106A4890F8221068485D
:1021800080F89910674890F82410654880F89A10F4
:10219000644890F82610624880F89B106148C08C13
:1021A00001125F4880F89C105E4890F828105C4847
:1021B00080F89D105B4890F82A10594880F89E10CE
:1021C000082180F8961093E0042C33D1554890F8FC
:1021D0002C10534880F897105248808D01125048B7
:1021E00080F898104F4890F82E104D4880F89910BC
:1021F0004C4890F830104A4880F89A10494890F8B6
:102200003210474880F89B104648408E01124448DF
:1022100080F89C10434890F83410414880F89D1095
:10222000404890F836103E4880F89E10082180F80B
:1022300096105DE0052C5BD13A4890F84210384882
:1022400080F89710374890F84410354880F8981077
:10225000344890F83E10324880F89910314890F890
:1022600040102F4880F89A102E4890F848102C48BB
:1022700080F89B102B48B0F848000112284880F8DD
:102280009C10284890F84A10254880F89D10254851
:1022900090F83C10224880F89E10082180F8961093
:1022A00026E044201E4988700020C8800120487222
:1022B0000020087200211A48C278303020F812102D
:1022C00030380479C078401CC0B2154948700746C0
:1022D00008468578200400EB052049780144104821
:1022E000C0F89010417880F89710012180F896107E
:1022F00004200B49087087E00948007804281BD1A6
:1023000007488C30FFF7B8FD0548407A60B1C82017
:10231000034948810220087076E000001A0000207E
:1023200000010020400000203C480079401C3B494F
:1023300008710320087067E03848007805283FD10D
:10234000364890F88800012810DD344890F888005D
:10235000401E324981F888000846407A012801D1A0
:102360000020087103202D4908704DE02B48C178EA
:102370001830405C03280ADA2848C1781830405CDD
:10238000401CC1B22548C2781830815404E00121B4
:102390002248C278243081542048C078401C1F490C
:1023A000C8700846C0780C2801DB0020C8700020E7
:1023B0001A490871012081F888000320087023E081
:1023C0001648007806281FD100211448C27818301A
:1023D000815418388078412803D11048C2780C30D5
:1023E00081540E48C078401C0C49C8700846C0781B
:1023F0000C2801DB0020C87000200849087101206A
:1024000081F8880003200870FFF74CFD064616B1DE
:102410003046FFF75BFD00BF91E5000000010020A2
:1024200010B50B49142000F04DFE78B900240BE0E4
:1024300004EB840106480C3000EB810004498968F4
:1024400041F82400601CC4B2142CF1DB10BD000064
:102450006C04002010B586B0044601A92046FEF7A2
:10246000B2FC40F2197001F06FFD40F2026001F021
:102470006BFD4FF4C06001F067FD4FF40063032271
:102480004821204801F06FFA4FF4805303221821AD
:102490001C4801F068FA03A9002000F07DFD1A48ED
:1024A00000F034F800208DF810008DF811008DF840
:1024B00012008DF813008DF814008DF815008DF8BA
:1024C0000C009DF804008DF80D009DF805008DF8B6
:1024D0000E009DF806008DF80F00BDF80800ADF85D
:1024E000160003A9084800F078F90221064800F018
:1024F00005FA00220121142001F0D4FB002006B0CF
:1025000010BD0000000801400064004010B5044602
:102510000548844207D140F2194001F035FD40F2F0
:10252000194001F021FD10BD0064004010B50020ED
:102530005C4908600846006820F00400001D08603F
:102540000846006820F0080008600846006820F08F
:10255000100008600846006820F020000860084667
:10256000006820F0400008600846006820F0800005
:1025700008600846006820F480700860084600681B
:1025800020F4007008600846006820F4806008604D
:102590000846006820F4006008600846006820F4DF
:1025A000805008600846006820F400500860084623
:1025B000006820F4804008600846006820F400406D
:1025C00008600846006820F480300860084600680B
:1025D00020F4003008600846006820F4802008607D
:1025E0000020314908600846006820F00400001D02
:1025F00008600846006820F0080008600846006887
:1026000020F0100008600846006820F020000860F4
:102610000846006820F0400008600846006820F086
:10262000800008600846006820F480700860084652
:10263000006820F4007008600846006820F480609C
:1026400008600846006820F40060086008460068DA
:1026500020F4805008600846006820F400500860AC
:102660000846006820F4804008600846006820F4AE
:10267000004008600846006820F480300860084682
:10268000006820F4003008600846006820F48020CC
:1026900008600846026803480168002000F052FC08
:1026A00010BD0000080000200C00002010B5002123
:1026B000837A012202FA03F13E4A126842F00102D3
:1026C0003C4B1A603B4A1C3212688A43394B1C331C
:1026D0001A60C289DAB9374A0C3212688A43354B1C
:1026E0000C331A60C288344B03EA024243881A430F
:1026F0004389304C403444F8332082882E4B03EA1F
:10270000024203881A43438904EBC3035A60C28917
:10271000012A1BD1274A0C3212680A43254B0C337D
:102720001A600288244B03EA024243881A43438911
:10273000204C403444F8332082881F4B03EA024285
:10274000C3881A43438904EBC3035A6082893AB9A8
:10275000184A121D12688A43164B1B1D1A6006E0A8
:10276000144A121D12680A43124B1B1D1A6002897B
:102770003AB9104A143212688A430E4B14331A6065
:1027800006E00C4A143212680A430A4B14331A60EA
:10279000027C012A06D1074A1C3212680A43054B03
:1027A0001C331A60034A126822F00102014B1A60BE
:1027B00010BD0000006600400000FFFF10B502469B
:1027C00002EB9110006801F01F040123A3401840A0
:1027D00008B1012010BD0020FCE770B502464FF69D
:1027E000FF730020146824F002041460146844F09D
:1027F0000104146000E05B1E546804F001040CB98D
:10280000002BF8D1546804F001040CB9002074E0E6
:102810000C784FF0404505EA84744D784FF04076CF
:1028200006EA05652C438D784FF4702606EA0545C7
:102830002C43CD784FF4E00606EA05552C434D892C
:102840006D1EC5F309052C43D4610C79012C04D10C
:10285000146844F08004146003E0146824F08004D9
:1028600014604C79012C04D1146844F040041460C5
:1028700003E0146824F0400414608C79012C04D126
:10288000146844F02004146003E0146824F0200469
:102890001460CC79012C04D1146844F01004146045
:1028A00003E0146824F0100414600C7A012C04D1A5
:1028B000146844F00804146003E0146824F0080469
:1028C00014604C7A012C04D1146844F004041460A0
:1028D00003E0146824F004041460146824F0010474
:1028E00014604FF6FF7300E05B1E546804F00104AF
:1028F0000CB1002BF8D103B1012070BD42690A432D
:102900004261704710B500F5D87303EB01131B68E3
:1029100003F004031372137A3BB900F5D87303EB89
:1029200001131B685B0D136006E000F5D87303EB21
:1029300001131B68DB08536000F5D87303EB011328
:102940001B6803F00203537200F5DA7303EB011303
:102950001B681B0AD37400F5DA7303EB01131B68C1
:1029600003F00F03937200F5DC7303EB01131B6894
:10297000D37200F5DC7303EB01131B681C0A14739C
:1029800000F5DC7303EB01131B681C0C547300F59A
:10299000DC7303EB01131B681C0E947300F5DE73EC
:1029A00003EB01131B68D37300F5DE7303EB011314
:1029B0001B681C0A147400F5DE7303EB01131B681B
:1029C0001C0C547400F5DE7303EB01131B681C0E22
:1029D000947421B9C36843F02003C36003E0036922
:1029E00043F02003036110BD30B502460B460021C1
:1029F000906800F08060B0F1806F00D110E09068C6
:102A000000F00060B0F1006F01D1012108E0906892
:102A100000F08050B0F1805F01D1022100E003217D
:102A2000032901D1032030BD02F5C07000EB011075
:102A3000006800F0010402F5C07000EB01100460B2
:102A4000187A88B918883B4C04EA40505C7A2043D5
:102A500002F5C07404EB01142468204302F5C0742D
:102A600004EB0114206013E06FF00704586804EAD7
:102A7000C0001C7A20435C7A204302F5C07404EB4A
:102A800001142468204302F5C07404EB0114206093
:102A900002F5C27000EB0110006820F00F0402F58F
:102AA000C27000EB0110046002F5C27000EB01106F
:102AB00000689C7A204302F5C27404EB0114206084
:102AC000987B4FF07F4404EA00605C7B4FF47F0505
:102AD00005EA044420431C7B2D1205EA042420430C
:102AE000DC7A204302F5C47404EB01142060987C66
:102AF0002C0404EA00605C7C2D0205EA04442043B7
:102B00001C7C2D1205EA04242043DC7B204302F5C3
:102B1000C67404EB0114206002F5C07000EB0110D4
:102B2000006840F0010402F5C07000EB0110046081
:102B3000084678E70000E0FFF0B5002400230022FB
:102B400000214568012D2AD1C57B012D22D1EE4DF2
:102B500095F84A500C2D21DA857B2E06457B06EB35
:102B60000546057B06EB0525C67A2E44E64D95F80D
:102B70004A704C3545F82760067C4C3D95F84A7004
:102B80007C35EE557C3D95F84A506D1CDE4E86F83E
:102B90004A5003E0C57B022D00D000BFF0BD456860
:102BA000C5F306428588C5F307240379012B01DBB1
:102BB0000C2B00DDF2E75D1EE9B2A4F15105062DF4
:102BC00070D2DFE805F0030A0BE1FEFDCE4D2D7853
:102BD000022D01D1CC4E357292E191E1FAB9C57A5C
:102BE000CA4EB580057BF580467B857B06EB0525C7
:102BF000C64EF581C67B057C06EB0525C34E3581A7
:102C0000467C857C06EB0525C04E7581BE4DB5F82A
:102C1000485045F00105BC4EA6F84850AAE0012AEC
:102C200021D1C67A057B06EB0525B84EB581467BDA
:102C3000857B06EB0525B54E3582C67B057C06EB0C
:102C400005252DB2B14E7582467C857C06EB0525A7
:102C5000AE4EB582AC4DB5F8485045F00205AA4ECF
:102C6000A6F8485086E0022A1DD1C57AA74EF58203
:102C7000057B3587467B857B06EB0525A34E358393
:102C8000C57B7583057CB583457CF583857C6DB2FA
:102C900075879D4DB5F8485045F004059A4EA6F845
:102CA000485067E02BE1032A22D1C67A057B06EB68
:102CB0000525964E3584457B05EB85056D007584AD
:102CC000857B05EB85056D00B584C67B057C06EB31
:102CD00005258E4EF584457C3585857C75858A4D28
:102CE000B5F8485045F00805874EA6F8485041E031
:102CF000042A1CD1C67A057B06EB0525834EB585D3
:102D0000457BF585857B3586C67B057C06EB0525F1
:102D10007E4E7586457CB586857CF5867A4DB5F800
:102D2000485045F01005784EA6F8485022E0052A94
:102D300020D1C57A754EA6F84250057BA6F84450BE
:102D4000457BF587857BA6F84050C67B057C06EB66
:102D500005256E4EA6F84850457CA6F84A50857C5D
:102D60006DB2B587684DB5F8485045F02005664E00
:102D7000A6F84850644DB5F848503F2D03D10325BF
:102D8000634E86F83150BBE0A2BBC67A057B06EBEA
:102D900005252DB2C1EBC1065E4F27F82650057CF4
:102DA0002E06C57B06EB0546857B06EB0526457B97
:102DB0003544C1EBC10607EB86067560457C01E032
:102DC0009CE09AE06DB2C1EBC10607EB8606357652
:102DD000857C6DB2C1EBC10607EB860675764A4D60
:102DE000303535F8115045F00106474D303525F89E
:102DF000116076E0FFE7012A2CD1457B2E04057B8C
:102E000006EB0525C67A3544C1EBC106414F07EBF9
:102E10008606F560C67B057C06EB0525C1EBC10681
:102E200007EB86063582457CC1EBC10607EB8606BB
:102E3000B576857CC1EBC10607EB8606F576324D8B
:102E4000303535F8115045F002062F4D303525F854
:102E5000116046E0022A28D1C57A0DB1012600E0B2
:102E60000026294D0C356E54057BC1EBC106294F58
:102E700007EB86067582467B857B06EB0525C1EB55
:102E8000C10607EB8606F582057BC1EBC10607EBA1
:102E90008606B5821C4D303535F8115045F00406D4
:102EA000194D303525F811601BE0032A19D1857BB7
:102EB0002E06457B06EB0546057B06EB0525C67A07
:102EC0003544C1EBC106134F07EB8606B5600E4DC6
:102ED000303535F8115045F008060B4D303525F8E2
:102EE0001160094DB5F848500F2D05D1064D2D78CC
:102EF000022D01D1044E357202E001E000E000BF76
:102F000000BF00BF4AE600000001002004030020CB
:102F100050030020B401002010B50021084800F043
:102F20008DF80121064800F089F80221044800F0DC
:102F300085F80320FFF78EFAFFF7F8FA10BD0000BE
:102F40000064004017B585B00446ADF80A40002083
:102F5000ADF80C000120ADF80E004FF6FF71069899
:102F600001EA1040ADF80000069880B2ADF802000A
:102F7000079801EA1040ADF80400079880B2ADF858
:102F800006000020ADF8080001208DF8100068460A
:102F9000FFF78CFB08B010BD10B5024609B900BFA1
:102FA000FEE732B1012A16D0022A20D0032A41D1ED
:102FB0002EE000234B71CB718B7140F2FF334B81BC
:102FC00000230B724B7002238B700023CB700B71AC
:102FD0004B720B7030E00123CB8100230B740B810B
:102FE0000B804B808B80CB808B814B8124E0002039
:102FF00005E0002401F10B031C54431CD8B208283F
:10300000F7D300238B724B600B724B720B6013E093
:10301000002005E0002401F10B031C54431CD8B22E
:103020000828F7D300238B724B600B72CB744B7262
:103030000B6001E000BFFEE700BF10BD51B9826820
:1030400042F08002826000BF826802F08002802A23
:10305000FAD01AE001290BD1826842F40042826062
:1030600000BF826802F40042B2F5004FF9D00CE0D4
:1030700002290AD1826842F40002826000BF82689D
:1030800002F40002B2F5000FF9D0704770B50246A5
:103090000C46FF25FF2309E012F8010B80EA050129
:1030A0000648405C80EA03050548435C201EA4F105
:1030B0000106B4B2F0D143EA052070BD284B0008E8
:1030C000284C000870B505460C460126002D00DD91
:1030D0000CB9304670BDA80000F0A8FDA060A06843
:1030E00020B1002020806080A58000263046F1E7D6
:1030F00010B504466FF0040001F00EFAE11704EB7E
:103100005171C1F3C701074A11701046007800EBF6
:103110004001C1EBC0104FF6FF7101EAC000024947
:10312000088010BD1C0000201E0000200146114A2E
:1031300012884A434FF0E0235A6100229A611A46EE
:10314000126942F001021A6100BF4FF0E0221069DB
:1031500000F001021AB100F48032002AF5D04FF0DD
:10316000E022126922F001024FF0E0231A610022EE
:103170009A6170471E0000200146114A12784A43A6
:103180004FF0E0235A6100229A611A46126942F018
:1031900001021A6100BF4FF0E022106900F0010245
:1031A0001AB100F48032002AF5D04FF0E022126903
:1031B00022F001024FF0E0231A6100229A61704769
:1031C0001C00002010B540F2036000F0BDFE80231B
:1031D00003221021064800F0C6FB40F2036000F015
:1031E000B3FE402303221021014800F0BCFB10BDB8
:1031F000000C014010B54FF4C06000F0A5FE0121A5
:10320000374800F017FC40F2036000F09DFE2023D9
:1032100003221021334800F0A6FB40F2036000F0C7
:1032200093FE0423032210212E4800F09CFB40F261
:10323000036000F089FE4FF48063032210212948C7
:1032400000F091FB40F2036000F07EFE4FF400635B
:1032500003224821234800F086FB40F2036000F07F
:1032600073FE4FF48053032248211E4800F07BFB7D
:1032700040F2036000F068FE4FF48073032248219F
:10328000184800F070FB40F2036000F05DFE4FF460
:10329000007303224821134800F065FB40F20460EC
:1032A00000F052FE4FF40053032248210E4800F074
:1032B0005AFB40F2046000F047FE4FF480430322C3
:1032C0004821094800F04FFB40F2046000F03CFE4A
:1032D0004FF4004303224821034800F044FB10BD93
:1032E00000023000000C0140001001401FB54FF4F7
:1032F000C06000F029FE40F20B6000F025FE0020C7
:10330000ADF800002020ADF802000020ADF8040068
:1033100042F6E06002900020ADF8060001208DF832
:103320000C006946094801F019F90121074801F02C
:1033300011F90121054801F05DF9044801F000F997
:1033400000220121192000F0ADFC1FBD002C01401E
:1033500010B54FF4C06000F0F7FD40F20E6000F0D1
:10336000F3FD40F2026000F0EFFD4FF40073032222
:103370001821274800F0F7FA40F2026000F0E4FD5F
:103380004FF4806303220421214800F0ECFA40F25C
:10339000026000F0D9FD4FF48073032210211C4815
:1033A00000F0E1FA00224FF48071194800F0D6FADB
:1033B000184801F085F94FF41651164801F02EF91E
:1033C0000021144801F00CFA0021124801F028FAFB
:1033D0000021104801F014FA08210E4801F018FAF3
:1033E00004210C4801F004FA40F20531094801F0CB
:1033F000C1F940F20631074801F0BCF9054801F077
:10340000A7F902220121252000F04CFC10BD00008C
:10341000000801400038014010B5FFF799FF10BDCA
:1034200010B54FF486710648FCF7B7FE0120044939
:1034300081F820001520C8800120488310BD0000BD
:10344000500300207F49498801B170477D490988B0
:103450007C4AD288914205DB7A49C98811B10021A2
:10346000784A11807749898829B97649098811B144
:103470000021744A11801921724A918011460A88EC
:1034800044318854443991F84410C52903D00021AF
:103490006C4A1180D9E76B490988022977D16949BB
:1034A00091F84610674A92F82020914203D00021FB
:1034B000644A1180C9E7634991F84510F02903D1A6
:1034C0001521604AD180B5E05E4991F84510F12997
:1034D00003D115215B4AD180ACE05A4991F84510DF
:1034E000F22903D11521574AD180A3E0554991F81B
:1034F0004510F32903D11521524AD1809AE0514950
:1035000091F84510D02903D13F214E4AD18091E056
:103510004C4991F84510E02903D11521494AD18041
:1035200088E0484991F84510E12903D11521454A21
:10353000D1807FE0434991F84510E22903D115215C
:10354000404AD18076E03F4991F84510E32903D104
:1035500015213C4AD1806DE03A4991F84510E429A3
:1035600003D11521374AD18064E0364991F84510DE
:10357000E52903D11521334AD1805BE0314991F827
:103580004510E62904D115212E4AD18052E042E0AF
:103590002C4991F84510E72903D11521294AD180FA
:1035A00048E0284991F84510E82903D11521254A1A
:1035B000D1803FE0234991F84510E92903D1152135
:1035C000204AD18036E01F4991F84510EA2903D1FD
:1035D00015211C4AD1802DE01A4991F84510EB299C
:1035E00003D11521174AD18024E0164991F84510DE
:1035F000D12903D11521134AD1801BE0114991F83B
:103600004510C02903D115210E4AD18012E01521A1
:103610000C4AD1800EE00B490A88C988491E8A42AB
:1036200008D108490988032904DD0121054A518090
:103630000021118003490988491C024A118000BFFA
:1036400003E700005003002070B500240025A948BE
:10365000408968B1A748408A28B101221102A648D2
:1036600000F07CF903E0A349888900F04DF970BDB2
:10367000A048808BC8B19F48C08BB0B99D48407EA0
:10368000401C9C49487600208883012081F8220054
:103690004FF47A704862002404E0012197480155F4
:1036A000601C84B20C2CF8DB07E09248C08B20B180
:1036B0009048C08B401E8F49C8838E4890F82200E6
:1036C00050B18C48406A38B900208A4981F82200FC
:1036D00001208B49087005E08648406A10B101203E
:1036E00084494862834890F8280038B18148408D69
:1036F00020B900207F4981F8280007E07D48408DEF
:1037000020B17C48408D401E7A494885794890F820
:103710003100012820D1C8207649888600207749C9
:103720000C39A1F848004C217648FCF736FD714869
:1037300090F8320000F5864070490C39C1F89000CD
:1037400000216E480C3880F89710012180F89610FF
:103750008C30FEF791FB1EE0664890F8310002289D
:103760000DD16448808E28B16248808E401E614928
:10377000888610E003205F4981F831000BE05D4846
:1037800090F83100032806D15A4991F83210491EA9
:10379000C8B2FDF7E1FD5748408800B967E75548D2
:1037A000806B401C534988630846C088801E81B2E4
:1037B00050484430FFF76AFC05464E48C088401E1A
:1037C0004C4944310A5C4B48C088801E085C02EBBF
:1037D0000020A84200D081E04648C06B401C45490B
:1037E000C863002008764861084690F84500E6283E
:1037F00049D014DCE12832D008DCC02863D0D028BE
:1038000059D0D1285BD0E02861D124E0E2282AD029
:10381000E3282CD0E4282ED0E52858D12FE0E73833
:103820000D2854D2DFE800F033373B3F4353535366
:1038300053070B0F13000020FDF7FAFE48E00120AC
:10384000FDF7F6FE44E00220FDF7F2FE40E0032023
:10385000FDF7EEFE3CE00020FDF77EFD38E00120A4
:10386000FDF77AFD34E00220FDF776FD30E003201D
:10387000FDF772FD2CE00420FDF76EFD28E0052029
:10388000FDF76AFD24E00620FDF766FD20E0072035
:10389000FDF762FD1CE00820FDF75EFD18E0092041
:1038A000FDF75AFD14E00A20FDF756FD10E00B204D
:1038B000FDF752FD0CE00020FDF726FC08E001209A
:1038C000FDF722FC04E00020FDF7C6FA00E000BF8F
:1038D00000BF0848408900B1C9E600BF642105481F
:1038E0004430FCF75AFC002002494880088000BFA1
:1038F000BDE6000050030020000801400C0100203C
:10390000160000200403002010B50446104800896A
:1039100040B9012211020F4800F020F801200C49A3
:10392000088114E00A480089012810D106210A48BC
:1039300000F013FF064890F8A810074800F0BBFEFF
:1039400000200349C881084684810220088110BDF7
:103950005003002000080140003801400AB1016115
:1039600000E041617047F0B504461646002500228C
:1039700001F00F0501F0100747B1042E05D145F005
:103980000305E76B1F43E76300E0354300201EE0BB
:10399000012787401F40C7B122684FEA800C0F27DC
:1039A00007FA0CF7BA43870005FA07F73A432829C4
:1039B00004D1012787401F40676105E0482903D1F2
:1039C000012787401F4027612260471CB8B20828A2
:1039D000DED3082022E0012787401F40E7B162685C
:1039E000A0F108074FEA870C0F2707FA0CF7BA4334
:1039F000A0F10807BF0005FA07F73A43282904D1C8
:103A0000012787401F40676105E0482903D101274E
:103A100087401F4027616260471CB8B21028DAD384
:103A2000F0BD02469068084008B1012070470020B0
:103A3000FCE70000F0B50A46002300240021002521
:103A400000F00046B6F1004F02D11D4EF16901E0D1
:103A50001B4E7168C0F3034583B200F44016B6F5FF
:103A6000401F08D121F0E061154E766826F0E0662F
:103A7000134F7E6012E000F48016B6F5801F06D169
:103A8000032606FA05F4A14341F0E06106E0460D85
:103A9000360103FA06F6B14341F0E06122B1460D6A
:103AA000360103FA06F6314300F00046B6F1004F46
:103AB00002D1034EF16101E0014E7160F0BD0000E2
:103AC0000000014040F6C41100B908E0012802D10D
:103AD00040F2712103E0022801D142F210710D4A37
:103AE0001268521C0B4B1A601A4612688A4203D2A3
:103AF0000022094B1A800BE0064A1268B2EB410F14
:103B000003D20122044B1A8002E00022014B1A600A
:103B100070470000100000200000002010B50021B8
:103B20004FF0006000F02AF97820FFF7E1FA00F08A
:103B3000B3F800F00DF8002010BD704710B500F08C
:103B40002FF800F049FAFEF7E9F900F033FA10BD5A
:103B5000FFF7F3FFFFF74EFBFFF7C8FBFFF732FB62
:103B600000F022FA6420FFF7E1FAFEF71DF90320C6
:103B7000FEF770FCFEF7DAFCFEF752FCFFF74CFC98
:103B8000FFF74EFC00F034FCFCF7B4FF034800F0F4
:103B9000DCFC01E000F008FCFCE70000002C014028
:103BA00010B50020FFF78EFF1A484088401C1949C5
:103BB00048801948808820B117488088401E1649DF
:103BC000888016480088401C144908801248408AA2
:103BD00020B11148408A401E0F4948821048008891
:103BE000401C0F49088008460088B0F5FA7F10DBBA
:103BF0000020088040F202610A48FEF7DFFD28B18C
:103C000009480088401C0849088002E00020064955
:103C1000088010BD16000020500300202200002064
:103C2000140000200064004004000020F0B50B30B8
:103C3000154D20F007010024144A0FE003688B4261
:103C40000BD38B4205D95E1A43184768C3E9006756
:103C500000E04368136002C004E0021D1068002801
:103C6000ECD12046002802D1286808B10020F0BD20
:103C7000064A07481060074A121A22F00702C0E9F4
:103C8000002401202860D7E73C00002038000020F5
:103C90001C060020180A002010B54FF4A06000F0A8
:103CA00063F810BD2DE9F04103460D461646002489
:103CB0000027A0462A48006800F4E060B0F5E06FF5
:103CC00003D100BF4FF0040830E02548006800F43D
:103CD000E060B0F5C06F03D101274FF0030825E085
:103CE0001F48006800F4E060B0F5A06F02D1022721
:103CF000B8461BE01A48006800F4E060B0F5806F39
:103D000003D103274FF0010810E01548006800F4C4
:103D1000E060B0F5407F03D104274FF0000805E0D4
:103D20004FF4A06000F020F80227B846C7F1040065
:103D300005FA00F4C8F104010F20C84030400443E4
:103D400024010848C45403F01F0101208840591180
:103D5000890001F1E021C1F80001BDE8F081000017
:103D60000CED00E000E400E002490143024A11606A
:103D7000704700000000FA050CED00E0024A0A401E
:103D80000243024B1A60704780FFFF1F08ED00E0FE
:103D900001460022002001B970470B885A1C8B880D
:103DA000934200DC00224B88934200D1F4E78B68F9
:103DB00053F822000A8000BFEEE710B50246002348
:103DC00002B109B9012010BD10885488A04201D168
:103DD0000120F8E75088431C9088984200DC0023BB
:103DE000906850F82300086053800020EBE7000043
:103DF0002DE9F04F8CB0074600200A904AA090E8C9
:103E0000004CC068CDE905BECDF810A007900FF2B8
:103E10001C1ADAE9000ACDE9020A0FF2101ADAE9EF
:103E2000000ACDE9000A44484068C0F381000B90C5
:103E30000B9820B1012804D002283FD103E03F4A6B
:103E40003EE03E4A3CE03C48406800F4803CBCF523
:103E5000803F12D13848C06A00F08048B8F1000FA6
:103E600001D1364C00E0364C3348406800F400394C
:103E7000B9F5003F02D1334C00E0324C2E48406887
:103E8000C0F383412C48406800F0006008B141F065
:103E900010012948406800F0804008B141F020013D
:103EA0000F2901D2891C06E00F2903D33E2901D82E
:103EB000491C00E03F2104FB01F201E01F4A00BF62
:103EC00000BF1D484068C0F3031504A8465D22FAF0
:103ED00006F319484068C0F3022502A8465D23FA9C
:103EE00006F0099014484068C0F3C2251DF805602B
:103EF00023FA06F0089037B1012F06D0022F06D022
:103F0000032F0AD106E00A9208E00A9306E0099816
:103F10000A9003E008980A9000E000BF00BF0A98EA
:103F20000CB0BDE8F08F00000000000000000000B1
:103F300001020304060708090010024000127A007B
:103F4000006CDC0200093D00064A02EB9011096892
:103F500000F01F0301229A401143024B03EB901221
:103F60001160704700100240064A02EB9011096888
:103F700000F01F0301229A409143024B03EB901281
:103F80001160704700100240064A02EB9011096868
:103F900000F01F0301229A401143024B03EB9012E1
:103FA00011607047001002400148002101807047F5
:103FB0000000002010B50648008808B9012000E084
:103FC0000020024620210348FFF7C8FC10BD000076
:103FD00000000020000C014010B54FF400412548BE
:103FE000FFF71FFD08B1012000E0002004014FF49D
:103FF00080412048FFF715FD08B1012000E00020B6
:1040000004EBC0044FF400511A48FFF70AFD08B151
:10401000012000E0002004EB80044FF400711648FA
:10402000FFF7FFFC08B1012000E0002004EB400492
:104030004FF480711048FFF7F4FC08B1012000E054
:1040400000202044401C0D4981F82000084690F8CB
:10405000200091F8211088420BD0084890F82000E9
:10406000064981F8210091F8200002220121FCF785
:10407000B5FD10BD00100140000C014050030020B0
:10408000F0B503460022002100250024FCE001EBEE
:104090008100804E56F8200001285ED101EB81009E
:1040A00006EB8000007C00F0020038BB33F8120001
:1040B00001EB8106774F07EB86067668B04209DD93
:1040C00001EB81003E4606EB8000808823F8120059
:1040D00001253FE033F8120001EB81066D4F07EB3D
:1040E0008606B668B04235DA01EB81003E4606EB43
:1040F0008000008923F8120001252BE033F812001C
:1041000000B201EB8106634F07EB86067668B0428A
:1041100009DD01EB81003E4606EB8000808823F834
:104120001200012516E033F8120001EB8106594F09
:1041300007EB8606B668B04201DA012000E00020F5
:1041400040B101EB8100534E06EB8000008923F85B
:1041500012000125501C82B294E001EB81004D4E0B
:1041600056F8200002286ED101EB810006EB80009A
:10417000007C00F00200E0BB33F8120003EB4206C3
:10418000768800EB064401EB8100424E06EB80008E
:104190004068A04214DA01EB810006EB80008088C1
:1041A00023F8120001EB810006EB800040684FF617
:1041B000FF7606EA204003EB4206708001255FE0AF
:1041C00001EB8100334E06EB80008068A04257DD92
:1041D00001EB810006EB8000008923F8120001EB5F
:1041E000810006EB800080684FF6FF7606EA2040EB
:1041F00000E004E003EB42067080012540E033F864
:10420000120003EB4206768800EB064401EB8100C6
:10421000204E06EB80004068A04215DA01EB8100D9
:1042200006EB8000808823F8120001EB810006EB8A
:10423000800040684FF6FF7606EA204003EB420616
:10424000708001251CE01DE001EB8100114E06EBA2
:1042500080008068A04213DD01EB810006EB800046
:10426000008923F8120001EB810006EB80008068D2
:104270004FF6FF7606EA204003EB420670800125E8
:10428000901C82B2481C81B22629FFF400AFE8B22C
:10429000F0BD00003048000810B5024600210020A3
:1042A00048E000EB8003254C54F82330012B11D15A
:1042B00000EB800304EB83031B7C03F0010333B1A9
:1042C00000EB800304EB83039B8922F811304B1C25
:1042D00099B22DE000EB8003184C54F82330022BE8
:1042E00026D100EB800304EB83031B7C03F0010366
:1042F00033B100EB800304EB83039B8922F8113078
:104300004B1C99B200EB80030C4C04EB83031B7C29
:1043100003F0010353B100EB800304EB8303DB687C
:104320004FF6FF7404EA234322F811304B1C99B274
:10433000431C98B22628B4D310BD000030480008B2
:104340002DE9F04105460E460027002400BF334604
:10435000002229461046FBF74FFF0746601C84B237
:104360000FB9052CF3DB052C02DB0120BDE8F08141
:104370000020FBE72DE9F04105460E46002700240A
:1043800000BF3346002229460120FBF735FF0746D0
:10439000601C84B20FB9052CF3DB052C02DB022074
:1043A000BDE8F0810020FBE710B50F4840880528E4
:1043B00000DA10BD00200C494880FFF745F9FCF7F2
:1043C00025FB0948007820B1002007490870FDF757
:1043D00037FD06480088642804DDFEF79DFD0020B7
:1043E0000249088000BFE4E7160000200400002016
:1043F00001480021016070471600002000200021C4
:104400003F4A126842F480323D4B1A6000BF401CA4
:104410003B4A126802F4003119B94FF6FF7290421C
:10442000F5D1374A126802F400320AB900BFFEE73C
:10443000334AD26942F08052314BDA61314A126814
:1044400042F440422F4B1A602D4A52682C4B5A605E
:104450001A4652685A601A46526842F480625A609C
:104460001A46526822F440325A601A46526842F4A0
:1044700040325A601A465268234B1A40204B5A6009
:104480001A465268214B1A431D4B5A601A4612684D
:1044900042F080721A6000BF194A126802F000727E
:1044A000002AF9D0174A126842F48032154B1A607C
:1044B00000BF144A526802F48032002AF9D0114A2F
:1044C000126842F400320F4B1A6000BF0D4A526866
:1044D00002F40032002AF9D0094A526822F003029D
:1044E000074B5A601A46526842F002025A6000BFF7
:1044F000034A526802F00802002AF9D0704700000F
:104500000010024000700040FFFFC3B700003408F5
:1045100010B5FFF773FF10BD042808D14FF0E0215C
:10452000096941F004014FF0E022116107E04FF00A
:10453000E021096921F004014FF0E0221161704788
:10454000016821F0010101607047016841F001013B
:1045500001607047CA430261704700000A888262A6
:104560001D4A90420ED0B0F1804F0BD01B4A9042B2
:1045700008D01B4A904205D01A4A904202D01A4AEB
:1045800090420BD1026822F07002026002684B88F0
:104590001A43026002688B881A4302608A68C2620A
:1045A000124A90420AD0124A904207D0026822F47E
:1045B000407202600268CB881A430260064A904249
:1045C00002D0094A904201D10A7B0263426942F05B
:1045D0000102426170470000002C014000040040CD
:1045E00000080040000C0040003401400010004072
:1045F00000140040C2680A43C2607047CA430261A7
:1046000070470246D06800EA01031069084010B103
:104610000BB1012070470020FCE700002DE9F047B6
:1046200004460D460027B846B94600261D49601AC3
:104630008C421CD006DC1C48204470B1B0F5806F61
:104640001FD10FE0B0F5806F16D0B0F56C4F18D1C8
:104650000320FFF7CDFB074614E00220FFF7C8FB5D
:1046600007460FE00220FFF7C3FB07460AE00220DF
:10467000FFF7BEFB074605E00220FFF7B9FB074640
:1046800000E000BF00BF07EB5500B0FBF5F64FF6AA
:10469000F07006EA000806F00F0948EA0900A06079
:1046A000BDE8F087004C004000BCFFBF01464868F1
:1046B000C0F308007047C1F3080242607047000071
:1046C00010B504462049601A8C4228D006DC1F48E9
:1046D000204490B1B0F5806F33D117E0B0F5806F12
:1046E00026D0B0F56C4F2CD140F20E30FFF74CFCC9
:1046F00040F20E30FFF738FC24E040F21140FFF7A3
:1047000043FC40F21140FFF72FFC1BE040F2124047
:10471000FFF73AFC40F21240FFF726FC12E040F2AD
:104720001340FFF731FC40F21340FFF71DFC09E096
:1047300040F21440FFF728FC40F21440FFF714FC4D
:1047400000E000BF00BF10BD004C004000BCFFBF38
:10475000C16841F40051C160704710B500EB91127F
:10476000126801F01F040123A3409A4300EB911348
:104770001A6010BD10B500EB9112126801F01F0411
:104780000123A3401A4300EB91131A6010BD10B52A
:1047900000EB91521268C1F304440123A3409A43F1
:1047A00000EB91531A6010BD70B50246002300243F
:1047B000C1F38910105801F01F060125B54000EA29
:1047C000050302EB91500068C1F304460125B54092
:1047D00000EA050414B10BB1012070BD0020FCE714
:1047E000C26822F4C062C260C2680A43C2607047F5
:1047F0000A460021C16821F004011143C1607047DD
:10480000026922F44052026102690A430261704760
:104810000A460021C16821F008011143C1607047B8
:10482000C26822F48052C260C2680A43C260704704
:1048300001000000E7030000000000000303000087
:104840000000000001000000FF0000000100000067
:104850000100000000000000010000000200000054
:104860000000000000000000000000000100000047
:104870000300000000000000000000000100000034
:1048800001000000A00F000014000000DC05000083
:104890000100000001000000A00F00001400000053
:1048A000E80300000100000001000000C800000053
:1048B0000100000064000000010000000100000091
:1048C0001027000064000000B80B00000100000089
:1048D00001000000204E0000640000001C250000C4
:1048E0000100000001000000E803000018FCFFFFC9
:1048F000000000000300000001000000102700007D
:1049000000000000C40900000100000001000000D8
:10491000E8030000000000001E000000010000008D
:1049200001000000E8030000000000009600000005
:104930000100000001000000C800000000000000AD
:10494000640000000100000001000000E803000016
:104950000000000032000000010000000100000023
:10496000E803000000000000140000000100000047
:10497000010000001027000000000000E803000014
:10498000010000000100000088130000000000008A
:104990003200000001000000010000008813000048
:1049A00000000000320000000100000001000000D3
:1049B000E8030000000000002C01000001000000DE
:1049C00001000000D0070000000000002D000000E2
:1049D00001000000010000000700000000000000CE
:1049E000040000000100000001000000E8030000D6
:1049F00000000000C80000000100000001000000ED
:104A0000FA000000000000000A00000001000000A1
:104A100001000000FA000000000000001400000087
:104A20000100000001000000E80300000000000099
:104A30003C0000000100000001000000FA0000003E
:104A4000000000000600000001000000010000005E
:104A50001027000000000000050000000100000019
:104A60000100000064000000010000000A000000D6
:104A700001000000010000007F00000080FFFFFF38
:104A80000000000003000000010000007F000000A3
:104A900080FFFFFF00000000030000000100000095
:104AA000FF000000000000000A00000001000000FC
:104AB00001000000FF000000000000000A000000EC
:104AC0000100000001000000FF00000000000000E5
:104AD0000A0000000100000001000000FF000000CB
:104AE000000000000A0000000100000001000000BA
:104AF00001000000000000000000000001000000B4
:104B00000100000010270000000000006400000009
:104B10000100000001000000010000000000000092
:104B2000010000000100000000C1814001C080417F
:104B300001C0804100C1814001C0804100C181406D
:104B400000C1814001C0804101C0804100C181405D
:104B500000C1814001C0804100C1814001C080414D
:104B600001C0804100C1814001C0804100C181403D
:104B700000C1814001C0804100C1814001C080412D
:104B800001C0804100C1814000C1814001C080411D
:104B900001C0804100C1814001C0804100C181400D
:104BA00000C1814001C0804101C0804100C18140FD
:104BB00000C1814001C0804100C1814001C08041ED
:104BC00001C0804100C1814000C1814001C08041DD
:104BD00001C0804100C1814001C0804100C18140CD
:104BE00000C1814001C0804100C1814001C08041BD
:104BF00001C0804100C1814001C0804100C18140AD
:104C000000C1814001C0804101C0804100C181409C
:104C100000C1814001C0804100C1814001C080418C
:104C200001C0804100C1814000C0C101C30302C274
:104C3000C60607C705C5C404CC0C0DCD0FCFCE0EDC
:104C40000ACACB0BC90908C8D81819D91BDBDA1A4C
:104C50001EDEDF1FDD1D1CDC14D4D515D71716D6BC
:104C6000D21213D311D1D010F03031F133F3F2322C
:104C700036F6F737F53534F43CFCFD3DFF3F3EFE9C
:104C8000FA3A3BFB39F9F83828E8E929EB2B2AEA0C
:104C9000EE2E2FEF2DEDEC2CE42425E527E7E6267C
:104CA00022E2E323E12120E0A06061A163A3A262EC
:104CB00066A6A767A56564A46CACAD6DAF6F6EAE5C
:104CC000AA6A6BAB69A9A86878B8B979BB7B7ABACC
:104CD000BE7E7FBF7DBDBC7CB47475B577B7B6763C
:104CE00072B2B373B17170B05090915193535292AC
:104CF00096565797559594549C5C5D9D5F9F9E5E1C
:104D00005A9A9B5B99595898884849894B8B8A4A8B
:104D10004E8E8F4F8D4D4C8C4484854587474686FB
:104D200082424383418180403F065B4F666D7D0731
:104D30007F6F007973000000584D000800000020CC
:104D400040000000A80D0008984D00084000002019
:104D5000D80D0000B80D00080000000000000000A1
:104D60000000000000000000000000000000000043
:104D70000000000000000000000000000000000033
:104D80000000000000000000000000000000000023
:084D900000000000000000001B
:0400000508000131BD
:00000001FF
